:100000000C945D000C9485000C9485000C94850084
:100010000C9485000C9485000C9485000C9485004C
:100020000C9485000C9485000C9485000C9485003C
:100030000C9485000C9485000C9485000C9485002C
:100040000C9447070C9485000C94080C0C944B0CF2
:100050000C9485000C9485000C9485000C9485000C
:100060000C9485000C94850000000007000201003C
:100070000003040600000000000000000102040864
:100080001020408001020408102001020408102002
:10009000040404040404040402020202020203032E
:1000A0000303030300000000250028002B000000CC
:1000B0000000240027002A00100D11241FBECFEFDE
:1000C000D8E0DEBFCDBF11E0A0E0B1E0E8EBFBE19E
:1000D00002C005900D92AA34B107D9F712E0AAE444
:1000E000B1E001C01D92A932B107E1F710E0CDE502
:1000F000D0E004C02197FE010E94BE0DCC35D1078F
:10010000C9F70E945F0B0C94DA0D0C9400006F92FB
:100110007F928F929F92AF92BF92CF92DF92EF9297
:10012000FF920F931F93CF93DF93EA012CE3C22E2C
:10013000D12CE12CF12CA70196010E94880D688337
:10014000CA01B901A70196010E94880D6983CA01FD
:10015000B90128E130E040E050E00E94880D6901DB
:100160007A016A83CA01B9016C5F7F4F8F4F9F4F3D
:1001700027E030E040E050E00E94880D6F5F6B8325
:10018000812C912C540140E034E6632E712C00E95F
:1001900011E0242F30E02E54384FF901E370FF278F
:1001A000309789F4C901B3010E94740D892B31F491
:1001B000C901B8010E94740D892B29F48EE691E0E3
:1001C000A0E0B0E004C08DE691E0A0E0B0E0880ED1
:1001D000991EAA1EBB1ED501C401AA27BB27C8169B
:1001E000D906EA06FB0610F04F5FD3CF4E83309757
:1001F00099F4C90164E670E00E94740D892B39F40A
:10020000C90160E971E00E94740D892B29F48EE622
:1002100091E0A0E0B0E004C08DE691E0A0E0B0E0A5
:10022000881A990AAA0ABB0AC818D908EA08FB085A
:10023000C90164E670E00E94740D8C01C90160E997
:1002400071E00E94740DACE0B1E020E0213041F497
:10025000309751F40115110529F4009729F402C0D3
:100260004C9103C04DE101C04CE150E060E070E012
:10027000C416D506E606F70640F0C41AD50AE60A03
:10028000F70A2F5F11962C3009F72F5F2D83C39447
:10029000CC82DF91CF911F910F91FF90EF90DF9073
:1002A000CF90BF90AF909F908F907F906F90089568
:1002B000CF92DF92EF92FF92C0905A01D0905B01F3
:1002C000E0905C01F0905D016C157D058E059F0549
:1002D00071F06B017C014EE551E00E948700C092F5
:1002E0005A01D0925B01E0925C01F0925D01FF90B7
:1002F000EF90DF90CF9008956F927F928F929F92B0
:10030000AF92BF92CF92DF92EF92FF920F931F9323
:10031000CF93DF93EC01EE81AE2FB0E020E833E322
:1003200041EE51E00E94610D4B015C0122EB37E090
:10033000FD0104E610E080E9E82EFF24F394C901F2
:10034000825B97408E179F07DCF4C9018370992761
:10035000892B99F4C901B8010E94740D892B31F4DD
:10036000C901B7010E94740D892B39F480E8880E09
:1003700081E5981E81E0A81EB11C2F5F3F4FDFCFA3
:100380006D80712CEE54F84FCF0164E670E00E944E
:10039000740D7C01CF0160E971E00E94740D6C0165
:1003A00001E010E0E370FF27061517052CF5023079
:1003B000110581F4309771F4E114F10419F4C114BA
:1003C000D10441F480E8880E8BE3981E86E2A81ED3
:1003D000B11C0FC0D801A55FBE4FAC91B0E020E8C2
:1003E00031E541E050E00E94610D860E971EA81E87
:1003F000B91E0F5F1F4FD8CF49812A8130E0A0E19D
:10040000BEE00E944B0D6B017C01242F30E0ACE379
:10041000B0E00E944B0DDC01CB018C0D9D1DAE1D8B
:10042000BF1D28816C017D01C20ED11CE11CF11C95
:10043000AC81B0E0119720E831E541E050E00E9446
:100440006C0DDC01CB018C0D9D1DAE1DBF1DBC01D3
:10045000CD01680D791D8A1D9B1DDF91CF911F91E4
:100460000F91FF90EF90DF90CF90BF90AF909F9053
:100470008F907F906F9008950F931F936093560114
:100480007093570180935801909359010091000196
:10049000109101012091020130910301DC01CB0197
:1004A000800F911FA21FB31F80934E0190934F01A5
:1004B000A0935001B093510182E090E090934D01E0
:1004C00080934C010E9491076093520170935301F5
:1004D00080935401909355011F910F910895CF92ED
:1004E000DF92EF92FF920F931F930E949107C090AB
:1004F0005201D0905301E0905401F09055018B01CE
:100500009C010C191D092E093F09809156019091FB
:100510005701A0915801B0915901083E134021059F
:100520003105D0F00196A11DB11D80935601909325
:100530005701A0935801B0935901B701A601485142
:100540005C4F6F4F7F4F4093520150935301609324
:10055000540170935501C9CF40914E0150914F0104
:10056000609150017091510184179507A607B70754
:10057000C8F1E0914A01F0914B01309799F109954A
:10058000611571058105910519F00E943C022AC090
:1005900040910001509101016091020170910301AD
:1005A0008091560190915701A0915801B091590145
:1005B000840F951FA61FB71F80934E0190934F0184
:1005C000A0935001B093510181E090E020914C0143
:1005D00030914D01232B11F480E090E090934D0178
:1005E00080934C01609156017091570180915801A0
:1005F000909159011F910F91FF90EF90DF90CF9054
:1006000008950E946F020E9458018091600190E05D
:1006100008950E946F020E94580180915F0190E04E
:1006200008950E946F020E94580180915E0190E03F
:1006300008950E946F020E9458018091610190E02C
:100640000895EF92FF920F9394E6E916F1042CF0CF
:1006500092EBE91A97E0F90A03C09EE1E90EF11C5A
:10066000E092640100936301209362018093600132
:1006700060935F0140935E018EE591E00E947C01F2
:100680000F91FF90EF900C943C02FC01718360830A
:1006900008951F93CF93DF93880FC82FD0E0BE013A
:1006A0007E5F81E791E00E944007182FBE016F5FD7
:1006B0007D4F81E791E00E944007212F30E0322FEB
:1006C0002227A901480F511DCA01DF91CF911F9127
:1006D0000895FC01808191810895FC012081318180
:1006E000AAE0B0E00E944B0D08958F929F92BF92B6
:1006F000CF92DF92EF92FF920F931F93CF93DF93EE
:1007000097E4899F60011124B60181E791E00E947E
:100710004007B82EC82FD0E0CE010196880F991F50
:100720000E9423087C0186014C010F5F1F4F9FEF41
:10073000900F9C199B1560F4B80181E791E00E942D
:1007400040070E944903F401819391934F01EDCF3B
:10075000CC0FDD1FCE0DDF1D8FEF9FEF99838883B8
:10076000C701DF91CF911F910F91FF90EF90DF9024
:10077000CF90BF909F908F900895FC0181E02081E1
:1007800031812F3F3F4F09F080E008950F931F9371
:10079000CF93DF938C01C62FD0E0CC0FDD1FF80183
:1007A0004181BE017E5F81E791E00E944307BE0167
:1007B0006F5F7D4FF801408181E791E0DF91CF913C
:1007C0001F910F910C94430770E097E4899F600D8F
:1007D000711D11246F5F7F4F81E791E00C944307F7
:1007E000462F97E4899FB001112481E791E00C9492
:1007F0004307CF92DF92EF92FF920E9401037C01A8
:100800000E940903AC0120E13EE0D7010E945A0D8D
:100810006B017C012CE330E0DA010E945A0DC60E18
:10082000D71EE81EF91E0E941103AA2797FDA09566
:10083000BA2FBC01CD016C0D7D1D8E1D9F1DFF903B
:10084000EF90DF90CF9008950E9419038250089591
:1008500080916F01909170010E946C0B80916E01EC
:100860000E9475039093700180936F010895CF9358
:10087000C82F40E855E260E070E08BE791E00E940D
:10088000860CC0936D0161E08C2F0E9479090E9453
:10089000240480936E010E947503909370018093ED
:1008A0006F010E94F9036093690170936A0180935C
:1008B0006B0190936C01CF910895CF93DF9300D09B
:1008C000CDB7DEB7209125023091260221153105E2
:1008D00011F429E232E0CE010196821B930B0F90B6
:1008E0000F90DF91CF91089568E171E08BE791E07F
:1008F0000E94220A0E945D044AE050E0BC018BE79E
:1009000091E00E94030B62E271E08BE791E00C94AE
:10091000220A61E080916D010E94B50960ED77E0E7
:1009200080E090E00E94C20760E080916D010C942D
:10093000B5090F931F93CF93DF9397FF22C0E9016F
:100940008A018BE791E00E94220A6AE38BE791E03B
:100950000E94240A4AE050E0B8018BE791E00E942F
:10096000030B6AE38BE791E00E94240A4AE050E01F
:10097000BE018BE791E00E940B0B0E94280481E0EE
:1009800001C080E0DF91CF911F910F9108951F93D7
:10099000CF93DF936BE58BE791E00E94240A10E090
:1009A00080916F01909170010E946C0B812F0E94C9
:1009B00075039093700180936F016BE58BE791E075
:1009C0000E94240AC0E0D0E080916F0190917001F4
:1009D0008C0F9D1F0E94BD03811128C080916F0163
:1009E000909170018C0F9D1F0E9469034AE050E0B6
:1009F000BC018BE791E00E94590B4AE050E060E0B7
:100A000070E08BE791E00E94030B229680916F01CA
:100A1000909170018C0F9D1F0E94BD038111D4CF56
:100A20006CE28BE791E00E94240ACECF6DE58BE764
:100A300091E00E94240A163029F06CE28BE791E0E5
:100A40000E94240A1F5F173009F0AACF6DE58BE7DB
:100A500091E00E94510ADF91CF911F910C942804DC
:100A60001F93CF93DF938BE791E00E949A0BEC01E9
:100A70001BE0D7FF0EC0115061F08BE791E00E94A0
:100A80009A0BEC016AE070E080E090E00E94C207FF
:100A9000F0CFCE01DF91CF911F9108957F928F9279
:100AA0009F92AF92BF92CF92DF92EF92FF920F93FD
:100AB0001F93CF93DF9300D0CDB7DEB700E010E0F7
:100AC000702E0E9430055C012FEF3FEFA80164E219
:100AD00071E00E94990481116BC06A2D802F0E94E1
:100AE000F003F12C8F2C912C8A149B0494F40E9417
:100AF0003005E82E9401A80167E271E00E94990494
:100B0000811156C04E2D6F2D872D0E94E403F39462
:100B1000E9CF0F5F1F4F0730110591F60E94300596
:100B20004C0120E030E047E050E06AE271E00E94D2
:100B3000990481113DC010E0A12EB12CA814B90474
:100B400044F50E943005082F950147E050E06DE222
:100B500071E00E94990481112BC00E9430057C0134
:100B6000950147E050E060E371E00E949904811133
:100B70001FC0D02EC12CB6016E0D7F1DCE01019677
:100B80000E944503612FCE0101960E94C6031F5F9C
:100B9000D3CF0E94280462E58BE791E00E94240AEB
:100BA00060910401709105018BE791E00E943F0A7A
:100BB0000F900F90DF91CF911F910F91FF90EF90C9
:100BC000DF90CF90BF90AF909F908F907F900895CF
:100BD0008F929F92AF92BF92CF92DF92EF92FF924D
:100BE0000F931F93CF93DF9364E170E080E090E078
:100BF0000E94C2078BE791E00E949A0BB82E8BE708
:100C000091E00E949A0BEC018BE791E00E949A0B15
:100C10006C018BE791E00E949A0B4C018BE791E00D
:100C20000E949A0B8C018BE791E00E949A0BA82EF0
:100C30008BE791E00E949A0BFA2CE12CE80EF11C54
:100C4000112794013327A6015527BE0177278B2D45
:100C500090E00E94210364E58BE791E00E94240A62
:100C600060910401709105018BE791E00E943F0AB9
:100C70000E94F90360936501709366018093670198
:100C800090936801DC01CB010197A109B109809320
:100C9000690190936A01A0936B01B0936C010E946B
:100CA000240480936E01DF91CF911F910F91FF90EB
:100CB000EF90DF90CF90BF90AF909F908F900C946B
:100CC00028048BE791E00E949A0B8F3F2FEF920749
:100CD00081F183339105F1F034F48133910551F0C2
:100CE000C29751F0089585339105C1F0ACF0C697D5
:100CF000F1F008950C94C70440916501509166018C
:100D000060916701709168012AE030E08BE791E023
:100D10000C94230B0C944E050C9474040E94240430
:100D20004AE050E0682F8BE791E00C94420B0C9462
:100D3000E8050895CF92DF92EF92FF921F93CF9331
:100D4000DF930E9461068091650190916601A091F8
:100D50006701B09168018093690190936A01A09343
:100D60006B01B0936C010E94F9036093650170936D
:100D700066018093670190936801C0906901D090EB
:100D80006A01E0906B01F0906C016C157D058E0599
:100D90009F05ACF41092690110926A0110926B01E8
:100DA00010926C010E94240480936E01DF91CF9118
:100DB0001F91FF90EF90DF90CF900C94280410E0EB
:100DC000C12FD0E0CC0FDD1F80916F019091700199
:100DD0008C0F9D1F0E94BD0381112DC080916F015A
:100DE000909170018C0F9D1F0E946D03C090650152
:100DF000D0906601E0906701F0906801C616D706B2
:100E0000E806F906B4F0C0906901D0906A01E0905C
:100E10006B01F0906C01C616D706E806F9064CF493
:100E2000DF91CF911F91FF90EF90DF90CF900C94C6
:100E300089041F5FC5CFDF91CF911F91FF90EF9085
:100E4000DF90CF900895EF92FF920F931F938FED55
:100E5000E82E87E0F82E02E010E029E030E042E3DF
:100E600050E06BE370E088E090E00E9421038BE0AB
:100E70001F910F91FF90EF900C9437040C949A06F9
:100E8000CB010C94C40DCB01642F0C94CC0D1F929C
:100E90000F920FB60F9211242F933F938F939F932E
:100EA000AF93BF938091730190917401A0917501EC
:100EB000B09176013091720123E0230F2D3720F499
:100EC0000196A11DB11D05C026E8230F0296A11DA4
:100ED000B11D209372018093730190937401A093CC
:100EE0007501B09376018091770190917801A0917E
:100EF0007901B0917A010196A11DB11D809377010E
:100F000090937801A0937901B0937A01BF91AF914A
:100F10009F918F913F912F910F900FBE0F901F9037
:100F200018952FB7F89460917301709174018091B6
:100F30007501909176012FBF08953FB7F894809185
:100F4000770190917801A0917901B0917A0126B54D
:100F5000A89B05C02F3F19F00196A11DB11D3FBFF1
:100F6000BA2FA92F982F8827820F911DA11DB11D7F
:100F7000BC01CD0142E0660F771F881F991F4A957B
:100F8000D1F70895CF92DF92EF92FF92CF93DF9344
:100F90006B017C010E949D07EB01C114D104E104A7
:100FA000F10479F00E949D076C1B7D0B683E734035
:100FB000A0F381E0C81AD108E108F108C851DC4F5C
:100FC000ECCFDF91CF91FF90EF90DF90CF9008951D
:100FD000789484B5826084BD84B5816084BD85B514
:100FE000826085BD85B5816085BDEEE6F0E08081DB
:100FF00081608083E1E8F0E01082808182608083FC
:10100000808181608083E0E8F0E08081816080837E
:10101000E1EBF0E0808184608083E0EBF0E08081B0
:1010200081608083EAE7F0E0808184608083808152
:1010300082608083808181608083808180688083FA
:101040001092C1000895CF93DF938230910510F480
:1010500082E090E0E0912702F091280220E030E069
:10106000C0E0D0E0309711F1408151814817590715
:10107000C0F04817590761F482819381209719F0D5
:101080009B838A832BC0909328028093270226C0DB
:101090002115310519F04217530718F49A01BE01C2
:1010A000DF01EF010280F381E02DDCCF2115310556
:1010B00009F1281B390B2430310590F412968D91DB
:1010C0009C9113976115710521F0FB019383828335
:1010D00004C09093280280932702FD01329644C0F9
:1010E000FD01E20FF31F81939193225031092D935B
:1010F0003C933AC02091250230912602232B41F4E3
:101100002091080130910901309326022093250295
:1011100020910601309107012115310541F42DB7C9
:101120003EB740910A0150910B01241B350BE09111
:101130002502F0912602E217F307A0F42E1B3F0BC5
:101140002817390778F0AC014E5F5F4F2417350739
:1011500048F04E0F5F1F5093260240932502819363
:10116000919302C0E0E0F0E0CF01DF91CF910895CC
:101170000F931F93CF93DF93009709F48CC0FC016A
:1011800032971382128200912702109128020115D2
:10119000110581F420813181820F931F2091250256
:1011A000309126022817390779F5F0932602E0934B
:1011B000250271C0D80140E050E0AE17BF0750F4DF
:1011C00012962D913C911397AD012115310509F12E
:1011D000D901F3CF9D01DA013383228360817181CC
:1011E000860F971F8217930769F4EC0128813981D4
:1011F000260F371F2E5F3F4F318320838A819B81CB
:1012000093838283452B29F4F0932802E0932702ED
:1012100042C01396FC93EE931297ED0149915991B8
:101220009E01240F351FE217F30771F4808191812D
:10123000840F951F029611969C938E9382819381C1
:1012400013969C938E931297E0E0F0E0D8011296EB
:101250008D919C911397009719F0F8018C01F6CFAE
:101260008D919C9198012E5F3F4F820F931F20918B
:101270002502309126022817390769F4309729F49E
:10128000109228021092270202C013821282109339
:10129000260200932502DF91CF911F910F910895AF
:1012A000833081F028F4813099F08230A1F00895E4
:1012B0008630A9F08730B9F08430D1F48091800075
:1012C0008F7D03C0809180008F7780938000089588
:1012D00084B58F7702C084B58F7D84BD08958091D9
:1012E000B0008F7703C08091B0008F7D8093B000F5
:1012F0000895CF93DF9390E0FC01E458FF4F2491D1
:10130000FC01E057FF4F8491882361F190E0880F42
:10131000991FFC01E255FF4FC591D491FC01EC559A
:10132000FF4FA591B491611109C09FB7F8948881CE
:10133000209582238883EC912E230BC0623061F4C8
:101340009FB7F8943881822F809583238883EC910E
:101350002E2B2C939FBF06C08FB7F894E8812E2BBD
:1013600028838FBFDF91CF9108951F93CF93DF9391
:10137000282F30E0F901E859FF4F8491F901E45832
:10138000FF4FD491F901E057FF4FC491CC23C9F02E
:10139000162F81110E945009EC2FF0E0EE0FFF1F75
:1013A000EC55FF4FA591B4918FB7F894111105C07A
:1013B0009C91ED2FE095E92302C0EC91ED2BEC938D
:1013C0008FBFDF91CF911F910895CF92DF92EF925F
:1013D000FF920F931F93CF93DF936C01EB017B017F
:1013E000E40EF51E00E010E0CE15DF0561F0699116
:1013F000D601ED91FC910190F081E02DC601099597
:10140000080F191FF1CFC801DF91CF911F910F91E4
:10141000FF90EF90DF90CF9008956115710579F0FE
:10142000FB0101900020E9F73197AF01461B570BF4
:10143000DC01ED91FC910280F381E02D099480E0C4
:1014400090E008950C940D0ADC01ED91FC9101905F
:10145000F081E02D09940F931F93CF93DF93EC015C
:101460006DE00E94240A8C016AE0CE010E94240AE9
:10147000800F911FDF91CF911F910F9108950F93CE
:101480001F93CF93DF93EC010E940D0A8C01CE01D4
:101490000E942B0A800F911FDF91CF911F910F9116
:1014A00008950F931F93CF93DF93EC010E94240ABA
:1014B0008C01CE010E942B0A800F911FDF91CF91EA
:1014C0001F910F9108958F929F92AF92BF92CF92EA
:1014D000DF92EF92FF920F931F93CF93DF93CDB7DD
:1014E000DEB7A1970FB6F894DEBF0FBECDBF6C017B
:1014F000142FE52FCB01022F19A2223008F40AE0A5
:101500007E0121E2E20EF11C802E912CA12CB12C47
:10151000612F7E2FA50194010E94880D029F101952
:10152000112481E0E81AF1081A3014F4105D01C0AA
:10153000195CF7011083122FE32FCA01232B242BF0
:10154000252B31F7B701C6010E940D0AA1960FB6EF
:10155000F894DEBF0FBECDBFDF91CF911F910F91E9
:10156000FF90EF90DF90CF90BF90AF909F908F90C3
:101570000895CF92DF92EF92FF920F931F93CF9334
:10158000DF93EC016A017B012115310579F4E881D3
:10159000F9810190F081E02D642FDF91CF911F91AF
:1015A0000F91FF90EF90DF90CF9009942A30310592
:1015B000E9F477FF1AC06DE20E94240A8C014427E7
:1015C0005527BA014C195D096E097F092AE0CE0141
:1015D0000E94630A800F911FDF91CF911F910F919D
:1015E000FF90EF90DF90CF9008952AE0B701A60119
:1015F000CE01DF91CF911F910F91FF90EF90DF907F
:10160000CF900C94630A9A01AB01662757FD609551
:10161000762F0C94B90A0F931F93CF93DF93EC01AD
:101620009A01AB01662757FD6095762F0E94B90A93
:101630008C01CE010E942B0A800F911FDF91CF9168
:101640001F910F9108950F931F93CF93DF93EC0198
:101650000E94B90A8C01CE010E942B0A800F911FB3
:10166000DF91CF911F910F9108952115310541F41C
:10167000DC01ED91FC910190F081E02D642F099443
:101680000C94630A0F931F93CF93DF93EC019A019D
:10169000462F50E060E070E00E94350B8C01CE01D7
:1016A0000E942B0A800F911FDF91CF911F910F9104
:1016B00008959A01AB0160E070E00C94350B0E9434
:1016C000E8070E942307C2E4DCE00E943E0720975F
:1016D000E1F30E94420CF9CF0C94B808FC01248578
:1016E0003585F901E05CFF4F808191813296208140
:1016F0003181821B930B8F7399270895DC011C960F
:10170000ED91FC911D97DF01A05CBF4F2D913C91A5
:10171000119712968D919C9111972817390739F0DE
:101720008D919C91E80FF91F808190E008958FEFD3
:101730009FEF0895FC01A485B585FD01E05CFF4F96
:10174000208131813296808191812817390779F083
:1017500080819181A80FB91F8C91208131812F5FE9
:101760003F4F2F7333273183208390E008958FEF0D
:101770009FEF0895FC0181A1882329F0A489B589F0
:101780008C9186FFFBCF11A208950F931F93CF93E7
:10179000DF93FC01A685B7858D01005C1F4FE80132
:1017A0008881998101968F739927AD014E5B5F4FB8
:1017B000EA012881398182179307D1F3E801288152
:1017C0003981A20FB31F6C93A685B785A05CBF4F6C
:1017D00011969C938E93A689B7892C9181E090E015
:1017E000078C02C0880F991F0A94E2F7822B8C9312
:1017F00081E081A30488F589E02D80818064808365
:1018000081E090E0DF91CF911F910F9108950895AD
:101810001F920F920FB60F9211242F934F935F9345
:101820008F939F93EF93FF938091C00082FD1CC024
:101830002091C600809121029091220201968F731F
:10184000992740912302509124028417950771F043
:10185000E0912102F0912202EF51FE4F20839093FC
:1018600022028093210202C08091C600FF91EF9175
:101870009F918F915F914F912F910F900FBE0F907D
:101880001F9018958BE791E00E946E0B892B11F049
:101890000C94070C08951F920F920FB60F9211240B
:1018A0002F933F938F939F93EF93FF932091DD01AD
:1018B0003091DE018091DF019091E0012817390716
:1018C00031F48091C1008F7D8093C10014C0E091FC
:1018D000DF01F091E001E356FE4F20818091DF01AE
:1018E0009091E00101968F7399279093E001809386
:1018F000DF012093C600FF91EF919F918F913F915F
:101900002F910F900FBE0F901F901895CF92DF92DE
:10191000EF92FF920F931F93CF93DF93EC016A0135
:101920007B01411581EE58076105710511F1EC89C4
:10193000FD8981E090E008A002C0880F991F0A94F9
:10194000E2F7808360E079E08DE390E0A701960103
:101950000E94880D89019A0101501109210931095C
:1019600036952795179507959801011580E1180779
:10197000A8F0EC89FD89108260E874E88EE190E0BF
:10198000A70196010E94880DDA01C9010197A109FA
:10199000B109B695A795979587959C01E889F9892E
:1019A0003083EA89FB89208319A2EE89FF8940816F
:1019B00081E090E09C010C8C02C0220F331F0A943E
:1019C000E2F7242B2083EE89FF8940819C010D8C56
:1019D00002C0220F331F0A94E2F7242B2083EE89E2
:1019E000FF8940819C010E8C02C0220F331F0A9494
:1019F000E2F7242B2083EE89FF8920810F8C02C01F
:101A0000880F991F0A94E2F7809582238083DF91E3
:101A1000CF911F910F91FF90EF90DF90CF9008959D
:101A2000EBE7F1E01382128288EE93E0A0E0B0E0F1
:101A300084839583A683B7838DE391E0918380832C
:101A400081EE91E0958784878DE991E0978786877D
:101A500085EC90E0918B808B84EC90E0938B828B73
:101A600080EC90E0958B848B81EC90E0978B868B5B
:101A700082EC90E0918F808F86EC90E0938F828F44
:101A800084E0848F83E0858F87E0868F85E0878F71
:101A900081E080A30895A29FB001B39FC001A39FDE
:101AA000700D811D1124911DB29F700D811D112497
:101AB000911D08950E944B0DB7FF0895821B930B53
:101AC00008950E944B0DA59F900DB49F900DA49F6B
:101AD000800D911D11240895B7FF0C94610D0E9493
:101AE000610D821B930B089597FB072E16F400944B
:101AF00007D077FD09D00E94AA0D07FC05D03EF45F
:101B0000909581959F4F0895709561957F4F0895A9
:101B1000A1E21A2EAA1BBB1BFD010DC0AA1FBB1FF1
:101B2000EE1FFF1FA217B307E407F50720F0A21B63
:101B3000B30BE40BF50B661F771F881F991F1A94D0
:101B400069F760957095809590959B01AC01BD01FA
:101B5000CF010895AA1BBB1B51E107C0AA1FBB1FE1
:101B6000A617B70710F0A61BB70B881F991F5A9529
:101B7000A9F780959095BC01CD010895EE0FFF1F48
:101B80000590F491E02D0994F999FECF92BD81BDA5
:101B9000F89A992780B50895262FF999FECF1FBA94
:101BA00092BD81BD20BD0FB6F894FA9AF99A0FBE86
:081BB00001960895F894FFCF9F
:101BB8002C01000033010000290280001F1C1F1E99
:101BC8001F1E1F1F1E1F1E1F465245454D454D3ADD
:101BD80020000A00453100453200453300453400F5
:101BE800453500446F6E65210000000000C50BE517
:0A1BF800096E0B9A0B7E0BBA0B006E
:00000001FF
