:100000000C945D000C9485000C9485000C94850084
:100010000C9485000C9485000C9485000C9485004C
:100020000C9485000C9485000C9485000C9485003C
:100030000C9485000C9485000C9485000C9485002C
:100040000C945D070C9485000C941E0C0C94610CB0
:100050000C9485000C9485000C9485000C9485000C
:100060000C9485000C94850000000007000201003C
:100070000003040600000000000000000102040864
:100080001020408001020408102001020408102002
:10009000040404040404040402020202020203032E
:1000A0000303030300000000250028002B000000CC
:1000B0000000240027002A00260D11241FBECFEFC8
:1000C000D8E0DEBFCDBF11E0A0E0B1E0E4EEFBE19F
:1000D00002C005900D92AA34B107D9F712E0AAE444
:1000E000B1E001C01D92AD32B107E1F710E0CDE5FE
:1000F000D0E004C02197FE010E94D40DCC35D10779
:10010000C9F70E94750B0C94F00D0C940000262F7B
:1001100060934C0170934D0190934B0180934A0181
:1001200061E0822F0E948F0961E080914A010C9466
:100130008F096F927F928F929F92AF92BF92CF92D0
:10014000DF92EF92FF920F931F93CF93DF93EA0119
:100150002CE3C22ED12CE12CF12CA70196010E9498
:100160009E0D6883CA01B901A70196010E949E0DE8
:100170006983CA01B90128E130E040E050E00E9403
:100180009E0D69017A016A83CA01B9016C5F7F4FD4
:100190008F4F9F4F27E030E040E050E00E949E0DDF
:1001A0006F5F6B83812C912C540140E034E6632E09
:1001B000712C00E911E0242F30E02E54384FF90162
:1001C000E370FF27309789F4C901B3010E948A0DBB
:1001D000892B31F4C901B8010E948A0D892B29F4B9
:1001E0008EE691E0A0E0B0E004C08DE691E0A0E0F2
:1001F000B0E0880E991EAA1EBB1ED501C401AA2715
:10020000BB27C816D906EA06FB0610F04F5FD3CF0E
:100210004E83309799F4C90164E670E00E948A0D1C
:10022000892B39F4C90160E971E00E948A0D892B9C
:1002300029F48EE691E0A0E0B0E004C08DE691E004
:10024000A0E0B0E0881A990AAA0ABB0AC818D9081F
:10025000EA08FB08C90164E670E00E948A0D8C017F
:10026000C90160E971E00E948A0DACE0B1E020E0D4
:10027000213041F4309751F40115110529F400970C
:1002800029F402C04C9103C04DE101C04CE150E0A3
:1002900060E070E0C416D506E606F70640F0C41A22
:1002A000D50AE60AF70A2F5F11962C3009F72F5F5F
:1002B0002D83C394CC82DF91CF911F910F91FF903A
:1002C000EF90DF90CF90BF90AF909F908F907F90F6
:1002D0006F900895CF92DF92EF92FF92C0905E01EF
:1002E000D0905F01E0906001F09061016C157D0598
:1002F0008E059F0571F06B017C0142E651E00E9482
:100300009900C0925E01D0925F01E0926001F0928C
:100310006101FF90EF90DF90CF9008956F927F92F0
:100320008F929F92AF92BF92CF92DF92EF92FF9205
:100330000F931F93CF93DF93EC01EE81AE2FB0E0CC
:1003400020E833E341EE51E00E94770D4B015C0160
:1003500022EB37E0FD0104E610E080E9E82EFF24FF
:10036000F394C901825B97408E179F07DCF4C901A3
:1003700083709927892B99F4C901B8010E948A0DCD
:10038000892B31F4C901B7010E948A0D892B39F4F8
:1003900080E8880E81E5981E81E0A81EB11C2F5FC1
:1003A0003F4FDFCF6D80712CEE54F84FCF0164E6E4
:1003B00070E00E948A0D7C01CF0160E971E00E942B
:1003C0008A0D6C0101E010E0E370FF2706151705A8
:1003D0002CF50230110581F4309771F4E114F10429
:1003E00019F4C114D10441F480E8880E8BE3981EFF
:1003F00086E2A81EB11C0FC0D801A55FBE4FAC910C
:10040000B0E020E831E541E050E00E94770D860E33
:10041000971EA81EB91E0F5F1F4FD8CF49812A8192
:1004200030E0A0E1BEE00E94610D6B017C01242F51
:1004300030E0ACE3B0E00E94610DDC01CB018C0D3B
:100440009D1DAE1DBF1D28816C017D01C20ED11CFA
:10045000E11CF11CAC81B0E0119720E831E541E0EE
:1004600050E00E94820DDC01CB018C0D9D1DAE1D64
:10047000BF1DBC01CD01680D791D8A1D9B1DDF913B
:10048000CF911F910F91FF90EF90DF90CF90BF9091
:10049000AF909F908F907F906F9008950F931F93D0
:1004A00060935A0170935B0180935C0190935D01AE
:1004B000009100011091010120910201309103018E
:1004C000DC01CB01800F911FA21FB31F809352014B
:1004D00090935301A0935401B093550182E090E0B2
:1004E00090935101809350010E94A7076093560199
:1004F0007093570180935801909359011F910F9168
:100500000895CF92DF92EF92FF920F931F930E9474
:10051000A707C0905601D0905701E0905801F09085
:1005200059018B019C010C191D092E093F0980916D
:100530005A0190915B01A0915C01B0915D01083E70
:10054000134021053105D0F00196A11DB11D809306
:100550005A0190935B01A0935C01B0935D01B701D8
:10056000A60148515C4F6F4F7F4F40935601509307
:1005700057016093580170935901C9CF40915201BE
:100580005091530160915401709155018417950762
:10059000A607B707C8F1E0914E01F0914F013097DF
:1005A00099F10995611571058105910519F00E9470
:1005B0004E022AC040910001509101016091020158
:1005C0007091030180915A0190915B01A0915C01AF
:1005D000B0915D01840F951FA61FB71F8093520134
:1005E00090935301A0935401B093550181E090E0A2
:1005F0002091500130915101232B11F480E090E0C3
:10060000909351018093500160915A0170915B0168
:1006100080915C0190915D011F910F91FF90EF908F
:10062000DF90CF9008950E9481020E946A0180911C
:10063000640190E008950E9481020E946A01809105
:10064000630190E008950E9481020E946A018091F6
:10065000620190E008950E9481020E946A018091E7
:10066000650190E00895EF92FF920F9394E6E916EA
:10067000F1042CF092EBE91A97E0F90A03C09EE12D
:10068000E90EF11CE0926801009367012093660176
:1006900080936401609363014093620182E691E07C
:1006A0000E948E010F91FF90EF900C944E02FC017E
:1006B0007183608308951F93CF93DF93880FC82FB2
:1006C000D0E0BE017E5F85E791E00E945607182FBB
:1006D000BE016F5F7D4F85E791E00E945607212F95
:1006E00030E0322F2227A901480F511DCA01DF91A6
:1006F000CF911F910895FC01808191810895FC01A3
:1007000020813181AAE0B0E00E94610D08958F92AE
:100710009F92BF92CF92DF92EF92FF920F931F931F
:10072000CF93DF9397E4899F60011124B60185E799
:1007300091E00E945607B82EC82FD0E0CE01019656
:10074000880F991F0E9439087C0186014C010F5FB8
:100750001F4F9FEF900F9C199B1560F4B80185E720
:1007600091E00E9456070E945B03F40181939193EC
:100770004F01EDCFCC0FDD1FCE0DDF1D8FEF9FEFB3
:1007800099838883C701DF91CF911F910F91FF90CB
:10079000EF90DF90CF90BF909F908F900895FC01D5
:1007A00081E0208131812F3F3F4F09F080E00895A3
:1007B0000F931F93CF93DF938C01660FC62FD0E06A
:1007C000FC014181BE017E5F85E791E00E945907EF
:1007D000BE016F5F7D4FF801408185E791E0DF91B9
:1007E000CF911F910F910C94590770E097E4899F66
:1007F000600D711D11246F5F7F4F85E791E00C94B0
:100800005907462F97E4899FB001112485E791E0AD
:100810000C945907CF92DF92EF92FF920E9413033C
:100820007C010E941B03AC0120E13EE0D7010E9445
:10083000700D6B017C012CE330E0DA010E94700D39
:10084000C60ED71EE81EF91E0E942303AA2797FD95
:10085000A095BA2FBC01CD016C0D7D1D8E1D9F1D75
:10086000FF90EF90DF90CF9008950E942B0382506D
:10087000089580917301909174010E94820B809180
:1008800072010E948703909374018093730108950D
:10089000CF93C82F40E855E260E070E08FE791E029
:1008A0000E949C0CC093710161E08C2F0E948F0903
:1008B0006CE070E08DE090E00E9487000E943504BB
:1008C000809372010E948703909374018093730157
:1008D0000E940A0460936D0170936E0180936F0112
:1008E00090937001CF910895CF93DF9300D0CDB74F
:1008F000DEB72091290230912A022115310511F429
:100900002DE232E0CE010196821B930B0F900F90E7
:10091000DF91CF91089568E171E08FE791E00E9447
:10092000380A0E9474044AE050E0BC018FE791E06D
:100930000E94190B62E271E08FE791E00C94380A93
:1009400061E0809171010E94CB0960ED77E080E069
:1009500090E00E94D80760E0809171010C94CB096F
:100960000F931F93CF93DF9397FF22C0E9018A0172
:100970008FE791E00E94380A6AE38FE791E00E94D6
:100980003A0A4AE050E0B8018FE791E00E94190B63
:100990006AE38FE791E00E943A0A4AE050E0BE0124
:1009A0008FE791E00E94210B0E94390481E001C091
:1009B00080E0DF91CF911F910F9108951F93CF9306
:1009C000DF936BE58FE791E00E943A0A10E0809197
:1009D0007301909174010E94820B812F0E94870302
:1009E00090937401809373016BE58FE791E00E940F
:1009F0003A0AC0E0D0E080917301909174018C0FAD
:100A00009D1F0E94CF03811128C080917301909196
:100A100074018C0F9D1F0E947B034AE050E0BC01D3
:100A20008FE791E00E946F0B4AE050E060E070E0D9
:100A30008FE791E00E94190B2296809173019091AB
:100A400074018C0F9D1F0E94CF038111D4CF6CE2E3
:100A50008FE791E00E943A0ACECF6DE58FE791E0F3
:100A60000E943A0A163029F06CE28FE791E00E946A
:100A70003A0A1F5F173009F0AACF6DE58FE791E0C2
:100A80000E94670ADF91CF911F910C9439041F9344
:100A9000CF93DF938FE791E00E94B00BEC011BE056
:100AA000D7FF0EC0115061F08FE791E00E94B00BAC
:100AB000EC016AE070E080E090E00E94D807F0CF9F
:100AC000CE01DF91CF911F9108957F928F929F92D7
:100AD000AF92BF92CF92DF92EF92FF920F931F934C
:100AE000CF93DF9300D0CDB7DEB700E010E0702EDB
:100AF0000E9447055C012FEF3FEFA80164E271E01F
:100B00000E94B00481116BC06A2D802F0E940104E5
:100B1000F12C8F2C912C8A149B0494F40E9447058D
:100B2000E82E9401A80167E271E00E94B0048111EF
:100B300056C04E2D6F2D872D0E94F503F394E9CFFB
:100B40000F5F1F4F0730110591F60E9447054C01BA
:100B500020E030E047E050E06AE271E00E94B0043B
:100B600081113DC010E0A12EB12CA814B90444F5A8
:100B70000E944705082F950147E050E06DE271E0C3
:100B80000E94B00481112BC00E9447057C01950191
:100B900047E050E060E371E00E94B00481111FC0A3
:100BA000D02EC12CB6016E0D7F1DCE0101960E9484
:100BB0005703612FCE0101960E94D8031F5FD3CF48
:100BC0000E94390462E58FE791E00E943A0A609141
:100BD0000401709105018FE791E00E94550A0F9082
:100BE0000F90DF91CF911F910F91FF90EF90DF90C9
:100BF000CF90BF90AF909F908F907F9008958F92ED
:100C00009F92AF92BF92CF92DF92EF92FF920F939B
:100C10001F93CF93DF9364E170E080E090E00E9447
:100C2000D8078FE791E00E94B00BB82E8FE791E0D4
:100C30000E94B00BEC018FE791E00E94B00B6C01B9
:100C40008FE791E00E94B00B4C018FE791E00E948A
:100C5000B00B8C018FE791E00E94B00BA82E8FE7BC
:100C600091E00E94B00BFA2CE12CE80EF11C112748
:100C700094013327A6015527BE0177278B2D90E0DD
:100C80000E94330364E58FE791E00E943A0A609185
:100C90000401709105018FE791E00E94550A0E94BE
:100CA0000A046093690170936A0180936B019093C9
:100CB0006C01DC01CB010197A109B10980936D01A1
:100CC00090936E01A0936F01B09370010E94350460
:100CD00080937201DF91CF911F910F91FF90EF9060
:100CE000DF90CF90BF90AF909F908F9008958FE747
:100CF00091E00E94B00B8F3F2FEF920781F1833379
:100D00009105F1F034F48133910551F0C29751F01F
:100D1000089585339105C1F0ACF0C697F1F00895C0
:100D20000C94DE044091690150916A0160916B015D
:100D300070916C012AE030E08FE791E00C94390B60
:100D40000C9465050C948B040E9435044AE050E035
:100D5000682F8FE791E00C94580B0C94FF050895D1
:100D6000CF92DF92EF92FF921F93CF93DF930E9477
:100D700077068091690190916A01A0916B01B09111
:100D80006C0180936D0190936E01A0936F01B093FD
:100D900070010E940A046093690170936A01809354
:100DA0006B0190936C01C0906D01D0906E01E0904A
:100DB0006F01F09070016C157D058E059F05ACF4F8
:100DC00010926D0110926E0110926F0110927001DD
:100DD0000E94350480937201DF91CF911F91FF90A3
:100DE000EF90DF90CF900C94390410E0C12FD0E049
:100DF000CC0FDD1F80917301909174018C0F9D1FAA
:100E00000E94CF0381112DC08091730190917401D4
:100E10008C0F9D1F0E947F03C0906901D0906A01D2
:100E2000E0906B01F0906C01C616D706E806F90653
:100E3000B4F0C0906D01D0906E01E0906F01F09021
:100E40007001C616D706E806F9064CF4DF91CF917B
:100E50001F91FF90EF90DF90CF900C94A0041F5F44
:100E6000C5CFDF91CF911F91FF90EF90DF90CF9092
:100E70000895EF92FF920F931F938FEDE82E87E076
:100E8000F82E02E010E029E030E042E350E06BE3AE
:100E900070E088E090E00E9433038BE01F910F9197
:100EA000FF90EF900C9448040C94B006CB010C9486
:100EB000DA0DCB01642F0C94E20D1F920F920FB646
:100EC0000F9211242F933F938F939F93AF93BF93D0
:100ED0008091770190917801A0917901B0917A0188
:100EE0003091760123E0230F2D3720F40196A11DC8
:100EF000B11D05C026E8230F0296A11DB11D209348
:100F000076018093770190937801A0937901B09353
:100F10007A0180917B0190917C01A0917D01B0913B
:100F20007E010196A11DB11D80937B0190937C01F0
:100F3000A0937D01B0937E01BF91AF919F918F915E
:100F40003F912F910F900FBE0F901F9018952FB7C4
:100F5000F894609177017091780180917901909176
:100F60007A012FBF08953FB7F89480917B0190914B
:100F70007C01A0917D01B0917E0126B5A89B05C0A2
:100F80002F3F19F00196A11DB11D3FBFBA2FA92F08
:100F9000982F8827820F911DA11DB11DBC01CD0185
:100FA00042E0660F771F881F991F4A95D1F7089571
:100FB000CF92DF92EF92FF92CF93DF936B017C0190
:100FC0000E94B307EB01C114D104E104F10479F0EC
:100FD0000E94B3076C1B7D0B683E7340A0F381E059
:100FE000C81AD108E108F108C851DC4FECCFDF91F5
:100FF000CF91FF90EF90DF90CF900895789484B5D3
:10100000826084BD84B5816084BD85B5826085BD04
:1010100085B5816085BDEEE6F0E0808181608083EA
:10102000E1E8F0E0108280818260808380818160CD
:101030008083E0E8F0E0808181608083E1EBF0E094
:10104000808184608083E0EBF0E080818160808338
:10105000EAE7F0E080818460808380818260808321
:101060008081816080838081806880831092C1004C
:101070000895CF93DF938230910510F482E090E0E1
:10108000E0912B02F0912C0220E030E0C0E0D0E0B3
:10109000309711F14081518148175907C0F0481726
:1010A000590761F482819381209719F09B838A8389
:1010B0002BC090932C0280932B0226C02115310562
:1010C00019F04217530718F49A01BE01DF01EF012E
:1010D0000280F381E02DDCCF2115310509F1281BB9
:1010E000390B2430310590F412968D919C91139711
:1010F0006115710521F0FB019383828304C09093F5
:101100002C0280932B02FD01329644C0FD01E20FB8
:10111000F31F81939193225031092D933C933AC050
:101120002091290230912A02232B41F420910801B9
:101130003091090130932A0220932902209106015F
:10114000309107012115310541F42DB73EB740918B
:101150000A0150910B01241B350BE0912902F091FB
:101160002A02E217F307A0F42E1B3F0B28173907BA
:1011700078F0AC014E5F5F4F2417350748F04E0FF3
:101180005F1F50932A02409329028193919302C0DA
:10119000E0E0F0E0CF01DF91CF9108950F931F932E
:1011A000CF93DF93009709F48CC0FC013297138230
:1011B000128200912B0210912C020115110581F46D
:1011C00020813181820F931F2091290230912A02C0
:1011D0002817390779F5F0932A02E093290271C0A4
:1011E000D80140E050E0AE17BF0750F412962D91A1
:1011F0003C911397AD012115310509F1D901F3CFC8
:101200009D01DA013383228360817181860F971FEC
:101210008217930769F4EC0128813981260F371F63
:101220002E5F3F4F318320838A819B81938382830A
:10123000452B29F4F0932C02E0932B0242C0139625
:10124000FC93EE931297ED01499159919E01240F61
:10125000351FE217F30771F480819181840F951F88
:10126000029611969C938E938281938113969C9300
:101270008E931297E0E0F0E0D80112968D919C9148
:101280001397009719F0F8018C01F6CF8D919C917E
:1012900098012E5F3F4F820F931F209129023091BA
:1012A0002A022817390769F4309729F410922C0282
:1012B00010922B0202C01382128210932A02009312
:1012C0002902DF91CF911F910F910895833081F012
:1012D00028F4813099F08230A1F008958630A9F089
:1012E0008730B9F08430D1F4809180008F7D03C0C5
:1012F000809180008F7780938000089584B58F77E8
:1013000002C084B58F7D84BD08958091B0008F7731
:1013100003C08091B0008F7D8093B0000895CF937B
:10132000DF9390E0FC01E458FF4F2491FC01E0576B
:10133000FF4F8491882361F190E0880F991FFC0191
:10134000E255FF4FC591D491FC01EC55FF4FA5919B
:10135000B491611109C09FB7F894888120958223C8
:101360008883EC912E230BC0623061F49FB7F89410
:101370003881822F809583238883EC912E2B2C93A8
:101380009FBF06C08FB7F894E8812E2B28838FBFAC
:10139000DF91CF9108951F93CF93DF93282F30E0F3
:1013A000F901E859FF4F8491F901E458FF4FD491B6
:1013B000F901E057FF4FC491CC23C9F0162F8111DA
:1013C0000E946609EC2FF0E0EE0FFF1FEC55FF4F77
:1013D000A591B4918FB7F894111105C09C91ED2F90
:1013E000E095E92302C0EC91ED2BEC938FBFDF91E8
:1013F000CF911F910895CF92DF92EF92FF920F93BA
:101400001F93CF93DF936C01EB017B01E40EF51E7C
:1014100000E010E0CE15DF0561F06991D601ED9195
:10142000FC910190F081E02DC6010995080F191F6C
:10143000F1CFC801DF91CF911F910F91FF90EF90F5
:10144000DF90CF9008956115710579F0FB0101904F
:101450000020E9F73197AF01461B570BDC01ED91F6
:10146000FC910280F381E02D099480E090E00895E2
:101470000C94230ADC01ED91FC910190F081E02DA8
:1014800009940F931F93CF93DF93EC016DE00E94BB
:101490003A0A8C016AE0CE010E943A0A800F911F3D
:1014A000DF91CF911F910F9108950F931F93CF93C9
:1014B000DF93EC010E94230A8C01CE010E94410AB5
:1014C000800F911FDF91CF911F910F9108950F937E
:1014D0001F93CF93DF93EC010E943A0A8C01CE0157
:1014E0000E94410A800F911FDF91CF911F910F91B0
:1014F00008958F929F92AF92BF92CF92DF92EF9218
:10150000FF920F931F93CF93DF93CDB7DEB7A197D1
:101510000FB6F894DEBF0FBECDBF6C01142FE52FC0
:10152000CB01022F19A2223008F40AE07E0121E249
:10153000E20EF11C802E912CA12CB12C612F7E2F5C
:10154000A50194010E949E0D029F1019112481E0B3
:10155000E81AF1081A3014F4105D01C0195CF701A3
:101560001083122FE32FCA01232B242B252B31F7B5
:10157000B701C6010E94230AA1960FB6F894DEBFF8
:101580000FBECDBFDF91CF911F910F91FF90EF90D4
:10159000DF90CF90BF90AF909F908F900895CF92A3
:1015A000DF92EF92FF920F931F93CF93DF93EC01A3
:1015B0006A017B012115310579F4E881F9810190F7
:1015C000F081E02D642FDF91CF911F910F91FF905B
:1015D000EF90DF90CF9009942A303105E9F477FF3E
:1015E0001AC06DE20E943A0A8C0144275527BA01BD
:1015F0004C195D096E097F092AE0CE010E94790A23
:10160000800F911FDF91CF911F910F91FF90EF906D
:10161000DF90CF9008952AE0B701A601CE01DF91B7
:10162000CF911F910F91FF90EF90DF90CF900C948E
:10163000790A9A01AB01662757FD6095762F0C94C5
:10164000CF0A0F931F93CF93DF93EC019A01AB0165
:10165000662757FD6095762F0E94CF0A8C01CE0138
:101660000E94410A800F911FDF91CF911F910F912E
:1016700008950F931F93CF93DF93EC010E94CF0A3D
:101680008C01CE010E94410A800F911FDF91CF9102
:101690001F910F9108952115310541F4DC01ED9161
:1016A000FC910190F081E02D642F09940C94790A4B
:1016B0000F931F93CF93DF93EC019A01462F50E0D5
:1016C00060E070E00E944B0B8C01CE010E94410A49
:1016D000800F911FDF91CF911F910F9108959A0173
:1016E000AB0160E070E00C944B0B0E94FE070E947F
:1016F0003907C8E5DCE00E9454072097E1F30E9417
:10170000580CF9CF0C94CE08FC0124853585F901DD
:10171000E05CFF4F80819181329620813181821B74
:10172000930B8F7399270895DC011C96ED91FC9122
:101730001D97DF01A05CBF4F2D913C911197129630
:101740008D919C9111972817390739F08D919C91B3
:10175000E80FF91F808190E008958FEF9FEF0895C3
:10176000FC01A485B585FD01E05CFF4F208131813E
:101770003296808191812817390779F08081918193
:10178000A80FB91F8C91208131812F5F3F4F2F739C
:1017900033273183208390E008958FEF9FEF0895E2
:1017A000FC0181A1882329F0A489B5898C9186FF49
:1017B000FBCF11A208950F931F93CF93DF93FC01EA
:1017C000A685B7858D01005C1F4FE801888199814E
:1017D00001968F739927AD014E5B5F4FEA01288117
:1017E000398182179307D1F3E80128813981A20F4B
:1017F000B31F6C93A685B785A05CBF4F11969C93D1
:101800008E93A689B7892C9181E090E0078C02C065
:10181000880F991F0A94E2F7822B8C9381E081A3B1
:101820000488F589E02D80818064808381E090E0E8
:10183000DF91CF911F910F91089508951F920F92FC
:101840000FB60F9211242F934F935F938F939F9313
:10185000EF93FF938091C00082FD1CC02091C600D1
:10186000809125029091260201968F7399274091CD
:101870002702509128028417950771F0E091250204
:10188000F0912602EB51FE4F208390932602809325
:10189000250202C08091C600FF91EF919F918F9128
:1018A0005F914F912F910F900FBE0F901F90189541
:1018B0008FE791E00E94840B892B11F00C941D0C92
:1018C00008951F920F920FB60F9211242F933F93FA
:1018D0008F939F93EF93FF932091E1013091E20169
:1018E0008091E3019091E4012817390731F4809148
:1018F000C1008F7D8093C10014C0E091E301F0919D
:10190000E401EF55FE4F20818091E3019091E401C5
:1019100001968F7399279093E4018093E3012093BC
:10192000C600FF91EF919F918F913F912F910F9062
:101930000FBE0F901F901895CF92DF92EF92FF92FB
:101940000F931F93CF93DF93EC016A017B01411545
:1019500081EE58076105710511F1EC89FD8981E07F
:1019600090E008A002C0880F991F0A94E2F78083D4
:1019700060E079E08DE390E0A70196010E949E0D62
:1019800089019A01015011092109310936952795DC
:10199000179507959801011580E11807A8F0EC89C3
:1019A000FD89108260E874E88EE190E0A70196015D
:1019B0000E949E0DDA01C9010197A109B109B695EE
:1019C000A795979587959C01E889F9893083EA89DD
:1019D000FB89208319A2EE89FF89408181E090E094
:1019E0009C010C8C02C0220F331F0A94E2F7242BB7
:1019F0002083EE89FF8940819C010D8C02C0220F5B
:101A0000331F0A94E2F7242B2083EE89FF8940815B
:101A10009C010E8C02C0220F331F0A94E2F7242B84
:101A20002083EE89FF8920810F8C02C0880F991FC7
:101A30000A94E2F7809582238083DF91CF911F91F2
:101A40000F91FF90EF90DF90CF900895EFE7F1E0D6
:101A50001382128288EE93E0A0E0B0E08483958345
:101A6000A683B7838DE391E09183808385EE91E037
:101A70009587848781EA91E09787868785EC90E057
:101A8000918B808B84EC90E0938B828B80EC90E048
:101A9000958B848B81EC90E0978B868B82EC90E029
:101AA000918F808F86EC90E0938F828F84E0848F7B
:101AB00083E0858F87E0868F85E0878F81E080A334
:101AC0000895A29FB001B39FC001A39F700D811D17
:101AD0001124911DB29F700D811D1124911D089537
:101AE0000E94610DB7FF0895821B930B08950E9419
:101AF000610DA59F900DB49F900DA49F800D911D29
:101B000011240895B7FF0C94770D0E94770D821B66
:101B1000930B089597FB072E16F4009407D077FDDA
:101B200009D00E94C00D07FC05D03EF49095819528
:101B30009F4F0895709561957F4F0895A1E21A2EE9
:101B4000AA1BBB1BFD010DC0AA1FBB1FEE1FFF1F61
:101B5000A217B307E407F50720F0A21BB30BE40BB1
:101B6000F50B661F771F881F991F1A9469F76095F8
:101B70007095809590959B01AC01BD01CF010895B2
:101B8000AA1BBB1B51E107C0AA1FBB1FA617B707A3
:101B900010F0A61BB70B881F991F5A95A9F78095BF
:101BA0009095BC01CD010895EE0FFF1F0590F491B3
:101BB000E02D0994F999FECF92BD81BDF89A99273D
:101BC00080B50895262FF999FECF1FBA92BD81BD29
:101BD00020BD0FB6F894FA9AF99A0FBE01960895AF
:041BE000F894FFCFA7
:101BE4002C010000330100002D0280001F1C1F1E69
:101BF4001F1E1F1F1E1F1E1F465245454D454D3AB1
:101C040020000A00453100453200453300453400C8
:101C1400453500446F6E65210000000000DB0BFBBE
:0A1C240009840BB00B940BD00B00E9
:00000001FF
