:100000000C945D000C9485000C9485000C94850084
:100010000C9485000C9485000C9485000C9485004C
:100020000C9485000C9485000C9485000C9485003C
:100030000C9485000C9485000C9485000C9485002C
:100040000C94CA0A0C9485000C94840F0C94C70F6E
:100050000C9485000C9485000C9485000C9485000C
:100060000C9485000C94850000000007000201003C
:100070000003040600000000000000000102040864
:100080001020408001020408102001020408102002
:10009000040404040404040402020202020203032E
:1000A0000303030300000000250028002B000000CC
:1000B0000000240027002A008C1011241FBECFEF5F
:1000C000D8E0DEBFCDBF11E0A0E0B1E0EEEEF2E29D
:1000D00002C005900D92A035B107D9F712E0A0E556
:1000E000B1E001C01D92AF33B107E1F710E0CDE5FB
:1000F000D0E004C02197FE010E945911CC35D107F0
:10010000C9F70E94DB0E0C9475110C940000982F17
:100110009F7D913409F4A5C0923409F4A4C09334AE
:1001200009F4A3C0943409F4A2C0953409F4A1C021
:10013000963409F4A0C0973409F49FC0983409F4A8
:100140009EC0993409F49DC09A3409F49CC09B3434
:1001500009F49BC09C3409F49AC09D3409F499C0F9
:100160009E3409F498C09F3409F497C0903509F47F
:1001700096C0913509F495C0923509F494C0933531
:1001800009F493C0943509F492C0953509F491C0EF
:10019000963509F490C0973509F48FC0983509F465
:1001A0008EC0993509F48DC09A3509F48CC08C3213
:1001B00009F48BC0883209F48AC08E3209F489C0F0
:1001C0008B3209F488C0803209F487C08E3309F479
:1001D00086C0843209F485C08A3309F484C08F3222
:1001E00009F483C0813309F482C0833309F481C0E8
:1001F000853309F480C0873309F47FC0893309F45B
:100200007EC0893209F47DC08D3209F47CC08D3303
:1002100009F47BC08C3309F47AC0853209F479C0C3
:100220008A3209F478C0803309F477C0823309F444
:1002300076C0843309F475C0863309F474C08833FA
:1002400009F473C08A3009F472C08F3309F471C0A5
:10025000813209F470C0833209F46FC08034E9F54B
:100260006EC089E808958BE808958DE808958FE8B9
:10027000089581E9089583E9089585E9089587E956
:10028000089589E908958BE908958DE908958FE926
:10029000089583EA089585EA089587EA089589EA2A
:1002A00008958BEA08958DEA08958FEA089581EB09
:1002B000089583EB089585EB089587EB089589EB06
:1002C00008958BEB08958DEB08958FEB089585ECE1
:1002D000089587EC089589EC08958BEC08958DECD2
:1002E00008958FEC089581ED089583ED089585EDCF
:1002F000089587ED089589ED08958BED08958DEDAE
:1003000008958FED089583EE089585EE089587EEA4
:10031000089589EE08958BEE08958DEE08958FEE81
:10032000089581EF089583EF089585EF089587EF8D
:10033000089589EF08958BEF08958DEF08958FEF5D
:100340000895262F609352017093530190935101A9
:100350008093500161E0822F0E94060D61E0809140
:1003600050010C94060DCF93DF9386E990E00E9434
:100370006B0BC0E5D1E061E088810E94420D86E907
:1003800090E00E946B0B60E088810E94420D86E93C
:1003900090E0DF91CF910C946B0BCF93DF93C2E58C
:1003A000D1E061E088810E94420D0E94B30160E0CB
:1003B00088810E94420D0E94B3010E94B3010E94F5
:1003C000B301DF91CF910C94B30168EC70E080E051
:1003D00090E00C94450B0F931F93CF93DF93C7E0EE
:1003E000D0E0082F112707FD1095B8010C2E02C090
:1003F000759567950A94E2F76170809152010E94A9
:10040000420D0E94B301219780F7DF91CF911F9198
:100410000F9108950E9487000C94EB014F925F9218
:100420006F927F928F929F92AF92BF92EF92FF92C4
:100430000F931F93CF93DF93CDB7DEB761970FB6BE
:10044000F894DEBF0FBECDBF2B013C014B015C0118
:1004500097FF07C0882499245401861A970AA80A8E
:10046000B90A80E1E82EF12C81149104A104B104B1
:1004700099F477FE0AC00E2DE1E0F0E0EC0FFD1FCD
:10048000EE0DFF1D83EE80832EC001E00E0D0131C5
:1004900051F58DEE898B26C0C501B4012AE030E00C
:1004A00040E050E00E9426116A3030F4E62FF0E080
:1004B000E45FFE4F808101C08BECE1E0F0E0EC0FE7
:1004C000FD1FEE0DFF1D8083C501B4012AE030E061
:1004D00040E050E00E94261149015A0181E0E81AEB
:1004E000F10810F600E110E0E1E0F0E0EC0FFD1F94
:1004F000E00FF11F80810E94EB010F5F1F4F013160
:10050000110591F761960FB6F894DEBF0FBECDBF0F
:10051000DF91CF911F910F91FF90EF90BF90AF901F
:100520009F908F907F906F905F904F9008956F9203
:100530007F928F929F92AF92BF92CF92DF92EF9273
:10054000FF920F931F93CF93DF93EA012CE3C22E08
:10055000D12CE12CF12CA70196010E940411688393
:10056000CA01B901A70196010E9404116983CA0159
:10057000B90128E130E040E050E00E940411690137
:100580007A016A83CA01B9016C5F7F4F8F4F9F4F19
:1005900027E030E040E050E00E9404116F5F6B8381
:1005A000812C912C540140E034E6632E712C00E93B
:1005B00011E0242F30E02E54384FF901E370FF276B
:1005C000309789F4C901B3010E94F010892B31F4EE
:1005D000C901B8010E94F010892B29F48EE691E040
:1005E000A0E0B0E004C08DE691E0A0E0B0E0880EAD
:1005F000991EAA1EBB1ED501C401AA27BB27C81677
:10060000D906EA06FB0610F04F5FD3CF4E83309732
:1006100099F4C90164E670E00E94F010892B39F466
:10062000C90160E971E00E94F010892B29F48EE67F
:1006300091E0A0E0B0E004C08DE691E0A0E0B0E081
:10064000881A990AAA0ABB0AC818D908EA08FB0836
:10065000C90164E670E00E94F0108C01C90160E9F4
:1006600071E00E94F010A6E1B1E020E0213041F4F9
:10067000309751F40115110529F4009729F402C0AF
:100680004C9103C04DE101C04CE150E060E070E0EE
:10069000C416D506E606F70640F0C41AD50AE60ADF
:1006A000F70A2F5F11962C3009F72F5F2D83C39423
:1006B000CC82DF91CF911F910F91FF90EF90DF904F
:1006C000CF90BF90AF909F908F907F906F90089544
:1006D000CF92DF92EF92FF92C0906401D0906501BB
:1006E000E0906601F09067016C157D058E059F0511
:1006F00071F06B017C0148E651E00E949702C092C4
:100700006401D0926501E0926601F0926701FF906A
:10071000EF90DF90CF9008956F927F928F929F928B
:10072000AF92BF92CF92DF92EF92FF920F931F93FF
:10073000CF93DF93EC01EE81AE2FB0E020E833E3FE
:1007400041EE51E00E94DD104B015C0122EB37E0ED
:10075000FD0104E610E080E9E82EFF24F394C901CE
:10076000825B97408E179F07DCF4C901837099273D
:10077000892B99F4C901B8010E94F010892B31F43A
:10078000C901B7010E94F010892B39F480E8880E66
:1007900081E5981E81E0A81EB11C2F5F3F4FDFCF7F
:1007A0006D80712CEE54F84FCF0164E670E00E942A
:1007B000F0107C01CF0160E971E00E94F0106C0143
:1007C00001E010E0E370FF27061517052CF5023055
:1007D000110581F4309771F4E114F10419F4C11496
:1007E000D10441F480E8880E8BE3981E86E2A81EAF
:1007F000B11C0FC0D801AB5EBE4FAC91B0E020E899
:1008000031E541E050E00E94DD10860E971EA81EE3
:10081000B91E0F5F1F4FD8CF49812A8130E0A0E178
:10082000BEE00E94C7106B017C01242F30E0ACE3D6
:10083000B0E00E94C710DC01CB018C0D9D1DAE1DE8
:10084000BF1D28816C017D01C20ED11CE11CF11C71
:10085000AC81B0E0119720E831E541E050E00E9422
:10086000E810DC01CB018C0D9D1DAE1DBF1DBC0130
:10087000CD01680D791D8A1D9B1DDF91CF911F91C0
:100880000F91FF90EF90DF90CF90BF90AF909F902F
:100890008F907F906F9008950F931F9360936001E6
:1008A0007093610180936201909363010091000154
:1008B000109101012091020130910301DC01CB0173
:1008C000800F911FA21FB31F80935801909359016D
:1008D000A0935A01B0935B0182E090E0909357019E
:1008E000809356010E94140B60935C0170935D012C
:1008F00080935E0190935F011F910F910895CF92B5
:10090000DF92EF92FF920F931F930E94140BC090FF
:100910005C01D0905D01E0905E01F0905F018B0181
:100920009C010C191D092E093F09809160019091CD
:100930006101A0916201B0916301083E134021055D
:100940003105D0F00196A11DB11D809360019093F7
:100950006101A0936201B0936301B701A601485100
:100960005C4F6F4F7F4F40935C0150935D016093EC
:100970005E0170935F01C9CF4091580150915901B8
:1009800060915A0170915B0184179507A607B7071C
:10099000C8F1E0915401F0915501309799F1099512
:1009A000611571058105910519F00E944C042AC05A
:1009B0004091000150910101609102017091030189
:1009C0008091600190916101A0916201B0916301F9
:1009D000840F951FA61FB71F80935801909359014C
:1009E000A0935A01B0935B0181E090E02091560101
:1009F00030915701232B11F480E090E09093570140
:100A00008093560160916001709161018091620153
:100A1000909163011F910F91FF90EF90DF90CF9025
:100A200008950E947F040E94680380916A0190E00B
:100A300008950E947F040E9468038091690190E0FC
:100A400008950E947F040E9468038091680190E0ED
:100A500008950E947F040E94680380916B0190E0DA
:100A60000895EF92FF920F9394E6E916F1042CF0AB
:100A700092EBE91A97E0F90A03C09EE1E90EF11C36
:100A8000E0926E0100936D0120936C0180936A01E6
:100A9000609369014093680188E691E00E948C03AD
:100AA0000F91FF90EF900C944C04FC0171836083D4
:100AB00008951F93CF93DF93880FC82FD0E0BE0116
:100AC0007E5F87E891E00E94C30A182FBE016F5F26
:100AD0007D4F87E891E00E94C30A212F30E0322F3A
:100AE0002227A901480F511DCA01DF91CF911F9103
:100AF0000895FC01808191810895FC01208131815C
:100B0000AAE0B0E00E94C71008958F929F92BF9212
:100B1000CF92DF92EF92FF920F931F93CF93DF93C9
:100B200097E4899F60011124B60187E891E00E9453
:100B3000C30AB82EC82FD0E0CE010196880F991FA6
:100B40000E94B00B7C0186014C010F5F1F4F9FEF8D
:100B5000900F9C199B1560F4B80187E891E00E9402
:100B6000C30A0E945905F401819391934F01EDCF7F
:100B7000CC0FDD1FCE0DDF1D8FEF9FEF9983888394
:100B8000C701DF91CF911F910F91FF90EF90DF9000
:100B9000CF90BF909F908F900895FC0181E02081BD
:100BA00031812F3F3F4F09F080E008950F931F934D
:100BB000CF93DF938C01660FC62FD0E0FC014181FB
:100BC000BE017E5F87E891E00E94C60ABE016F5FAA
:100BD0007D4FF801408187E891E0DF91CF911F912F
:100BE0000F910C94C60A70E097E4899F600D711D07
:100BF00011246F5F7F4F87E891E00C94C60A462F5F
:100C000097E4899FB001112487E891E00C94C60A0B
:100C1000CF92DF92EF92FF920E9411057C010E9419
:100C20001905AC0120E13EE0D7010E94D6106B010E
:100C30007C012CE330E0DA010E94D610C60ED71EEC
:100C4000E81EF91E0E942105AA2797FDA095BA2F3C
:100C5000BC01CD016C0D7D1D8E1D9F1DFF90EF9081
:100C6000DF90CF9008950E942905825008950F9338
:100C70001F93CF9309E711E0C0E08C2F0E948505F8
:100C8000F801819391938F01CF5FC730B1F7CF9176
:100C90001F910F910895CF93DF93C9E7D1E0899118
:100CA00099910E94E80E81E0C738D807C1F7DF911B
:100CB000CF910895CF93C82F40E855E260E070E0EF
:100CC00081E991E00E940210C093770161E08C2FCE
:100CD0000E94060D6CE070E08DE090E00E94A101A2
:100CE0000E943306809378010E9437060E9408060E
:100CF00060937301709374018093750190937601F2
:100D0000CF910895CF93DF9300D0CDB7DEB7209178
:100D10003B0230913C022115310511F42FE332E002
:100D2000CE010196821B930B0F900F90DF91CF9114
:100D3000089562E271E081E991E00E94AF0D0E94A6
:100D400082064AE050E0BC0181E991E00E94900EE9
:100D50006CE271E081E991E00C94AF0D61E080916B
:100D600077010E94420D60E177E280E090E00E940E
:100D7000450B60E0809177010C94420D2F923F92D9
:100D80004F925F926F927F928F929F92AF92BF929B
:100D9000CF92DF92EF92FF920F931F93CF93DF9347
:100DA000CDB7DEB7C65FD3400FB6F894DEBF0FBE37
:100DB000CDBF81E991E00E94160F8F3F2FEF920780
:100DC00009F446C28133910509F05BC06BE581E906
:100DD00091E00E94B10D39E7E32E31E0F32ED12CE2
:100DE0006BE581E991E00E94B10D00E010E0F701B0
:100DF00080819181800F911F0E94CD05811127C0B4
:100E0000F70180819181800F911F0E9479054AE04E
:100E100050E0BC0181E991E00E94D50E4AE050E02B
:100E200060E070E081E991E00E94900E0E5F1F4F3C
:100E3000F70180819181800F911F0E94CD05811162
:100E4000D6CF6CE281E991E00E94B10DD0CF6DE583
:100E500081E991E00E94B10DF6E0DF1629F06CE225
:100E600081E991E00E94B10DD39422E0E20EF11CE1
:100E700087E0D812B5CF6DE581E991E00E94DE0DE3
:100E8000E7C18233910579F440916F01509170016F
:100E900060917101709172012AE030E081E991E086
:100EA0000E94980ED5C18333910571F50E944B06BF
:100EB0003E0195E1691A9CEF790A4E01EFEF8E1A17
:100EC000EDEF9E0A5401CC50DC4F79826882C45FFA
:100ED000D340E12CF12C81E991E00E94160F8C01A6
:100EE0002BE0D22E17FFD6C0DA94DD2009F4CBC058
:100EF00081E991E00E94160F8C016AE070E080E0C9
:100F000090E00E94450BEECF8433910519F40E94C6
:100F100099069EC18533910551F40E9433064AE03B
:100F200050E0682F81E991E00E94BE0E91C1C69702
:100F300009F08EC164E170E080E090E00E94450B12
:100F400081E991E00E94160F782E81E991E00E94DC
:100F5000160F6C0181E991E00E94160F5C0181E996
:100F600091E00E94160F4C0181E991E00E94160F5A
:100F70008C0181E991E00E94160F582E81E991E0E1
:100F80000E94160F682E4AE050E0672D81E991E03B
:100F90000E94B70E60E281E991E00E94B10D4AE043
:100FA00050E06C2D81E991E00E94B70E60E281E98A
:100FB00091E00E94B10D4AE050E06A2D81E991E094
:100FC0000E94B70E60E281E991E00E94B10D4AE013
:100FD00050E0682D81E991E00E94B70E60E281E95E
:100FE00091E00E94B10D4AE050E0602F81E991E06C
:100FF0000E94B70E60E281E991E00E94B10DF52CEC
:10100000E12CE60CF11C4AE050E0B70181E991E0E7
:101010000E94900E60E281E991E00E94B10D1127DB
:1010200094013327A5015527B6017727872D90E036
:101030000E94310564E581E991E00E94B10D609163
:1010400004017091050181E991E00E94CC0D0E949C
:10105000080660936F017093700180937101909303
:101060007201DC01CB010197A109B10980937301E1
:1010700090937401A0937501B09376010E9433069A
:1010800080937801E5C06EE271E081E991E00E9411
:10109000CC0D85C0202ECC50DC4FE881F981C45F97
:1010A000D3400193CC50DC4FF983E883C45FD34035
:1010B000C12CD12C3C2CC214C8F481E991E00E94CF
:1010C000160F8C019BE0592E17FF79C05A945520BA
:1010D00009F458C081E991E00E94160F8C016AE082
:1010E00070E080E090E00E94450BEECFE39426E4B0
:1010F000A20EB11C87E0E812EECE10E0F3010191E0
:101100003F01602F812F0E94FF05C12CD12CC016FA
:1011100060F4F401EC0DFD1D40816C2D812F0E94C7
:10112000F305FFEFCF1ADF0AF2CF1F5F26E4820E2E
:10113000911C173019F7CE0101966C0110E01F15B4
:1011400089F0F601619171916F01CE018E509C4F33
:101150000E945505612FCE018E509C4F0E94D605EE
:101160001F5FEDCF0E94370662E581E991E00E94A2
:10117000B10D609104017091050181E991E00E9437
:10118000CC0D66C061E371E081E991E00E94AF0D92
:101190004AE050E0632D81E991E00E94B70E63E3DD
:1011A00071E081E991E00E94AF0D4AE050E06E2DC0
:1011B00081E991E00E94BE0E0E94370649C081E994
:1011C00091E00E94160F2C012BE057FE1BC021500E
:1011D000B1F081E991E0CA50DC4F2883C65FD3406B
:1011E0000E94160F2C016AE070E080E090E00E94FF
:1011F000450BCA50DC4F2881C65FD340E6CF65E37C
:1012000071E0C2CF102F0027400E511EFE01319613
:1012100020E02F1561F0819191918415950529F4B5
:10122000F501EC0DFD1D20830FC02F5FF2CFFE01F5
:101230003196EF0DF11DEF0DF11D51824082F50148
:10124000EC0DFD1DF082F394FFEFCF1ADF0A32CFD1
:10125000CA50DC4F0FB6F894DEBF0FBECDBFDF9192
:10126000CF911F910F91FF90EF90DF90CF90BF90A3
:10127000AF909F908F907F906F905F904F903F9036
:101280002F9008958F929F92AF92BF92CF92DF924C
:10129000EF92FF921F93CF93DF930E94BE0680913F
:1012A0006F0190917001A0917101B09172018093D2
:1012B000730190937401A0937501B09376010E941D
:1012C000080660936F017093700180937101909391
:1012D0007201C0907301D0907401E0907501F0909C
:1012E00076016C157D058E059F056CF410927301D7
:1012F0001092740110927501109276010E943306CB
:101300008093780117C1C12CCC2DD0E0CC0FDD1F0C
:10131000E0917801F0E0EE0FFF1FE758FE4F80816B
:1013200091818C0F9D1F0E94CD05811103C1E09119
:101330007801F0E0EE0FFF1FE758FE4F80819181AA
:101340008C0F9D1F0E947D054B015C0180916F01F8
:1013500090917001A0917101B09172018815990569
:10136000AA05BB050CF4E4C080917301909174014F
:10137000A0917501B091760188159905AA05BB0564
:101380000CF0D6C00E94CD018AE00E940A0210E053
:10139000C12FD0E0CC0FDD1FE0917801F0E0EE0F1F
:1013A000FF1FE758FE4F808191818C0F9D1F0E9487
:1013B000CD05811114C0E0917801F0E0EE0FFF1F20
:1013C000E758FE4F808191818C0F9D1F0E947D0503
:1013D0000E940E0280E20E940A021F5FD9CF8DE2B6
:1013E0000E940A026091780170E080E090E00E9423
:1013F0000E0280E20E940A0260916F0170917001FA
:1014000080917101909172010E940E0280E20E940F
:101410000A0260917301709174018091750190913D
:1014200076010E940E028AE30E940A02C501B401FD
:101430000E940E0280E20E940A02D12CE12CF12CC3
:10144000C701B6010E940E028AE00E940A020E94B1
:10145000E5010E94AE060E94CD018AE00E940A02C8
:1014600010E0C12FD0E0CC0FDD1FE0917801F0E05B
:10147000EE0FFF1FE758FE4F808191818C0F9D1F5B
:101480000E94CD05811114C0E0917801F0E0EE0FCB
:10149000FF1FE758FE4F808191818C0F9D1F0E9496
:1014A0007D050E940E0280E20E940A021F5FD9CFD2
:1014B0008DE20E940A026091780170E080E090E085
:1014C0000E940E0280E20E940A0260916F017091F8
:1014D000700180917101909172010E940E0280E270
:1014E0000E940A02609173017091740180917501EC
:1014F000909176010E940E028AE30E940A02C501C1
:10150000B4010E940E0280E20E940A02C701B601E5
:101510000E940E028AE0DF91CF911F91FF90EF9021
:10152000DF90CF90BF90AF909F908F900C940A0265
:10153000C394EACEDF91CF911F91FF90EF90DF909F
:10154000CF90BF90AF909F908F900895EF92FF92B1
:101550000F931F938FEDE82E87E0F82E02E010E046
:1015600029E030E042E350E06BE370E088E090E097
:101570000E9431058BE01F910F91FF90EF900C942A
:101580005A060C944209CB010C945F11CB01642FD5
:101590000C9467111F920F920FB60F9211242F9384
:1015A0003F938F939F93AF93BF93809189019091C5
:1015B0008A01A0918B01B0918C013091880123E0C8
:1015C000230F2D3720F40196A11DB11D05C026E87B
:1015D000230F0296A11DB11D2093880180938901DC
:1015E00090938A01A0938B01B0938C0180918D011F
:1015F00090918E01A0918F01B09190010196A11D53
:10160000B11D80938D0190938E01A0938F01B093B3
:101610009001BF91AF919F918F913F912F910F902A
:101620000FBE0F901F9018952FB7F8946091890105
:1016300070918A0180918B0190918C012FBF089548
:101640003FB7F89480918D0190918E01A0918F0108
:10165000B091900126B5A89B05C02F3F19F00196C7
:10166000A11DB11D3FBFBA2FA92F982F8827820F28
:10167000911DA11DB11DBC01CD0142E0660F771F78
:10168000881F991F4A95D1F70895CF92DF92EF9264
:10169000FF92CF93DF936B017C010E94200BEB0143
:1016A000C114D104E104F10479F00E94200B6C1BF9
:1016B0007D0B683E7340A0F381E0C81AD108E108B1
:1016C000F108C851DC4FECCFDF91CF91FF90EF9044
:1016D000DF90CF900895019739F0880F991F880FF8
:1016E000991F02970197F1F70895789484B5826065
:1016F00084BD84B5816084BD85B5826085BD85B5B6
:10170000816085BDEEE6F0E0808181608083E1E864
:10171000F0E010828081826080838081816080839C
:10172000E0E8F0E0808181608083E1EBF0E080819F
:1017300084608083E0EBF0E0808181608083EAE771
:10174000F0E08081846080838081826080838081FA
:10175000816080838081806880831092C1000895B9
:10176000CF93DF938230910510F482E090E0E09116
:101770003D02F0913E0220E030E0C0E0D0E0309742
:1017800011F14081518148175907C0F04817590796
:1017900061F482819381209719F09B838A832BC007
:1017A00090933E0280933D0226C02115310519F029
:1017B0004217530718F49A01BE01DF01EF010280BE
:1017C000F381E02DDCCF2115310509F1281B390B00
:1017D0002430310590F412968D919C9113976115E8
:1017E000710521F0FB019383828304C090933E0234
:1017F00080933D02FD01329644C0FD01E20FF31FCC
:1018000081939193225031092D933C933AC02091BA
:101810003B0230913C02232B41F42091080130918E
:10182000090130933C0220933B0220910601309144
:1018300007012115310541F42DB73EB740910A014A
:1018400050910B01241B350BE0913B02F0913C02BF
:10185000E217F307A0F42E1B3F0B2817390778F087
:10186000AC014E5F5F4F2417350748F04E0F5F1FE6
:1018700050933C0240933B028193919302C0E0E07D
:10188000F0E0CF01DF91CF9108950F931F93CF9395
:10189000DF93009709F48CC0FC0132971382128207
:1018A00000913D0210913E020115110581F4208145
:1018B0003181820F931F20913B0230913C02281707
:1018C000390779F5F0933C02E0933B0271C0D801EF
:1018D00040E050E0AE17BF0750F412962D913C91B6
:1018E0001397AD012115310509F1D901F3CF9D0100
:1018F000DA013383228360817181860F971F8217FB
:10190000930769F4EC0128813981260F371F2E5F78
:101910003F4F318320838A819B8193838283452B30
:1019200029F4F0933E02E0933D0242C01396FC93EB
:10193000EE931297ED01499159919E01240F351FA5
:10194000E217F30771F480819181840F951F02964D
:1019500011969C938E938281938113969C938E9380
:101960001297E0E0F0E0D80112968D919C911397C8
:10197000009719F0F8018C01F6CF8D919C91980198
:101980002E5F3F4F820F931F20913B0230913C020C
:101990002817390769F4309729F410923E02109203
:1019A0003D0202C01382128210933C0200933B025C
:1019B000DF91CF911F910F910895833081F028F42A
:1019C000813099F08230A1F008958630A9F08730F7
:1019D000B9F08430D1F4809180008F7D03C0809174
:1019E00080008F7780938000089584B58F7702C040
:1019F00084B58F7D84BD08958091B0008F7703C03A
:101A00008091B0008F7D8093B0000895CF93DF93D5
:101A100090E0FC01E458FF4F2491FC01E057FF4F98
:101A20008491882361F190E0880F991FFC01E255B1
:101A3000FF4FC591D491FC01EC55FF4FA591B49196
:101A4000611109C09FB7F89488812095822388830B
:101A5000EC912E230BC0623061F49FB7F89438816B
:101A6000822F809583238883EC912E2B2C939FBF0C
:101A700006C08FB7F894E8812E2B28838FBFDF91A3
:101A8000CF9108951F93CF93DF93282F30E0F90172
:101A9000E859FF4F8491F901E458FF4FD491F901BF
:101AA000E057FF4FC491CC23C9F0162F81110E943B
:101AB000DD0CEC2FF0E0EE0FFF1FEC55FF4FA59172
:101AC000B4918FB7F894111105C09C91ED2FE0955A
:101AD000E92302C0EC91ED2BEC938FBFDF91CF9106
:101AE0001F910895CF92DF92EF92FF920F931F9371
:101AF000CF93DF936C01EB017B01E40EF51E00E058
:101B000010E0CE15DF0561F06991D601ED91FC91F1
:101B10000190F081E02DC6010995080F191FF1CF42
:101B2000C801DF91CF911F910F91FF90EF90DF904F
:101B3000CF9008956115710579F0FB0101900020A7
:101B4000E9F73197AF01461B570BDC01ED91FC9192
:101B50000280F381E02D099480E090E008950C94D8
:101B60009A0DDC01ED91FC910190F081E02D09943A
:101B70000F931F93CF93DF93EC016DE00E94B10DA3
:101B80008C016AE0CE010E94B10D800F911FDF91A0
:101B9000CF911F910F9108950F931F93CF93DF93D0
:101BA000EC010E949A0D8C01CE010E94B80D800FAD
:101BB000911FDF91CF911F910F9108950F931F9364
:101BC000CF93DF93EC010E94B10D8C01CE010E94F6
:101BD000B80D800F911FDF91CF911F910F91089544
:101BE0008F929F92AF92BF92CF92DF92EF92FF922D
:101BF0000F931F93CF93DF93CDB7DEB7A1970FB6A7
:101C0000F894DEBF0FBECDBF6C01142FE52FCB01C2
:101C1000022F19A2223008F40AE07E0121E2E20E2E
:101C2000F11C802E912CA12CB12C612F7E2FA501AF
:101C300094010E940411029F1019112481E0E81AF6
:101C4000F1081A3014F4105D01C0195CF70110831B
:101C5000122FE32FCA01232B242B252B31F7B70199
:101C6000C6010E949A0DA1960FB6F894DEBF0FBE72
:101C7000CDBFDF91CF911F910F91FF90EF90DF903B
:101C8000CF90BF90AF909F908F900895CF92DF92AA
:101C9000EF92FF920F931F93CF93DF93EC016A01B2
:101CA0007B012115310579F4E881F9810190F081FA
:101CB000E02D642FDF91CF911F910F91FF90EF9056
:101CC000DF90CF9009942A303105E9F477FF1AC0EC
:101CD0006DE20E94B10D8C0144275527BA014C19C1
:101CE0005D096E097F092AE0CE010E94F00D800F88
:101CF000911FDF91CF911F910F91FF90EF90DF9097
:101D0000CF9008952AE0B701A601CE01DF91CF91CF
:101D10001F910F91FF90EF90DF90CF900C94F00DFA
:101D20009A01AB01662757FD6095762F0C94460EFD
:101D30000F931F93CF93DF93EC010E94460E8C010B
:101D4000CE010E94B80D800F911FDF91CF911F919E
:101D50000F9108952115310541F4DC01ED91FC91BD
:101D60000190F081E02D642F09940C94F00D9A01FC
:101D7000462F50E060E070E00C94AA0E0F931F9382
:101D8000CF93DF93EC019A01462F50E060E070E0C2
:101D90000E94AA0E8C01CE010E94B80D800F911FE7
:101DA000DF91CF911F910F9108959A01AB0160E0EF
:101DB00070E00C94AA0E0E94750B0E94A60ACEEB4E
:101DC000DFE00E94C10A2097E1F30E94BE0FF9CF25
:101DD0000C94450CFC0124853585F901E05CFF4F2E
:101DE00080819181329620813181821B930B8F7388
:101DF00099270895DC011C96ED91FC911D97DF0158
:101E0000A05CBF4F2D913C91119712968D919C91A2
:101E100011972817390739F08D919C91E80FF91F18
:101E2000808190E008958FEF9FEF0895FC01A485D5
:101E3000B585FD01E05CFF4F2081318132968081C4
:101E400091812817390779F080819181A80FB91FF6
:101E50008C91208131812F5F3F4F2F733327318346
:101E6000208390E008958FEF9FEF0895FC0181A1FA
:101E7000882329F0A489B5898C9186FFFBCF11A214
:101E800008950F931F93CF93DF93FC01A685B78529
:101E90008D01005C1F4FE8018881998101968F7345
:101EA0009927AD014E5B5F4FEA0128813981821786
:101EB0009307D1F3E80128813981A20FB31F6C93F6
:101EC000A685B785A05CBF4F11969C938E93A6897B
:101ED000B7892C9181E090E0078C02C0880F991F90
:101EE0000A94E2F7822B8C9381E081A30488F58920
:101EF000E02D80818064808381E090E0DF91CF914C
:101F00001F910F91089508951F920F920FB60F928F
:101F100011242F934F935F938F939F93EF93FF938E
:101F20008091C00082FD1CC02091C60080913702C4
:101F30009091380201968F73992740913902509100
:101F40003A028417950771F0E0913702F091380258
:101F5000E950FE4F2083909338028093370202C0ED
:101F60008091C600FF91EF919F918F915F914F916A
:101F70002F910F900FBE0F901F90189581E991E05F
:101F80000E94EA0E892B11F00C94830F08951F9282
:101F90000F920FB60F9211242F933F938F939F931D
:101FA000EF93FF932091F3013091F4018091F501BB
:101FB0009091F6012817390731F48091C1008F7D87
:101FC0008093C10014C0E091F501F091F601ED5449
:101FD000FE4F20818091F5019091F60101968F735B
:101FE00099279093F6018093F5012093C600FF9105
:101FF000EF919F918F913F912F910F900FBE0F9076
:102000001F901895CF92DF92EF92FF920F931F933C
:10201000CF93DF93EC016A017B01411581EE5807F4
:102020006105710511F1EC89FD8981E090E008A05E
:1020300002C0880F991F0A94E2F7808360E079E07C
:102040008DE390E0A70196010E94041189019A0195
:1020500001501109210931093695279517950795E2
:102060009801011580E11807A8F0EC89FD8910821C
:1020700060E874E88EE190E0A70196010E940411E7
:10208000DA01C9010197A109B109B695A7959795FC
:1020900087959C01E889F9893083EA89FB89208347
:1020A00019A2EE89FF89408181E090E09C010C8CAF
:1020B00002C0220F331F0A94E2F7242B2083EE89FB
:1020C000FF8940819C010D8C02C0220F331F0A94AE
:1020D000E2F7242B2083EE89FF8940819C010E8C3E
:1020E00002C0220F331F0A94E2F7242B2083EE89CB
:1020F000FF8920810F8C02C0880F991F0A94E2F794
:10210000809582238083DF91CF911F910F91FF9063
:10211000EF90DF90CF900895E1E9F1E01382128211
:1021200088EE93E0A0E0B0E084839583A683B78334
:1021300083E491E09183808387EF91E095878487A2
:1021400083EB91E09787868785EC90E0918B808B7D
:1021500084EC90E0938B828B80EC90E0958B848B69
:1021600081EC90E0978B868B82EC90E0918F808F52
:1021700086EC90E0938F828F84E0848F83E0858F5C
:1021800087E0868F85E0878F81E080A30895A29FF6
:10219000B001B39FC001A39F700D811D1124911D3B
:1021A000B29F700D811D1124911D08950E94C710CA
:1021B000B7FF0895821B930B08950E94C710A59F37
:1021C000900DB49F900DA49F800D911D1124089532
:1021D000B7FF0C94DD100E94DD10821B930B089555
:1021E00097FB072E16F4009407D077FD09D00E94C4
:1021F000451107FC05D03EF4909581959F4F0895B9
:10220000709561957F4F0895A1E21A2EAA1BBB1B02
:10221000FD010DC0AA1FBB1FEE1FFF1FA217B307B2
:10222000E407F50720F0A21BB30BE40BF50B661FC8
:10223000771F881F991F1A9469F76095709580958C
:1022400090959B01AC01BD01CF010895052E97FB30
:102250001EF400940E943D1157FD07D00E94041106
:1022600007FC03D04EF40C943D11509540953095E9
:1022700021953F4F4F4F5F4F0895909580957095F2
:1022800061957F4F8F4F9F4F0895AA1BBB1B51E154
:1022900007C0AA1FBB1FA617B70710F0A61BB70BD6
:1022A000881F991F5A95A9F780959095BC01CD017B
:1022B0000895EE0FFF1F0590F491E02D0994F99910
:1022C000FECF92BD81BDF89A992780B50895262F3B
:1022D000F999FECF1FBA92BD81BD20BD0FB6F8940B
:0E22E000FA9AF99A0FBE01960895F894FFCF6E
:1022EE002C010000390100003F028000EDD5EFD730
:1022FE00F1D9F3DBF5DD1F1C1F1E1F1E1F1F1E1F36
:10230E001E1F465245454D454D3A20000A004530A8
:10231E000045313A0045323A00446F6E65210000A7
:10232E00000000410F720DEA0E160FFA0E360F0066
:00000001FF
