:100000000C945D000C9485000C9485000C94850084
:100010000C9485000C9485000C9485000C9485004C
:100020000C9485000C9485000C9485000C9485003C
:100030000C9485000C9485000C9485000C9485002C
:100040000C94A70A0C9485000C94610F0C94A40FD7
:100050000C9485000C9485000C9485000C9485000C
:100060000C9485000C94850000000007000201003C
:100070000003040600000000000000000102040864
:100080001020408001020408102001020408102002
:10009000040404040404040402020202020203032E
:1000A0000303030300000000250028002B000000CC
:1000B0000000240027002A00691011241FBECFEF82
:1000C000D8E0DEBFCDBF11E0A0E0B1E0E8EAF2E2A7
:1000D00002C005900D92A635B107D9F712E0A6E54A
:1000E000B1E001C01D92A534B107E1F710E0CDE504
:1000F000D0E004C02197FE010E943611CC35D10713
:10010000C9F70E94B80E0C9452110C940000982F5D
:100110009F7D913409F4A5C0923409F4A4C09334AE
:1001200009F4A3C0943409F4A2C0953409F4A1C021
:10013000963409F4A0C0973409F49FC0983409F4A8
:100140009EC0993409F49DC09A3409F49CC09B3434
:1001500009F49BC09C3409F49AC09D3409F499C0F9
:100160009E3409F498C09F3409F497C0903509F47F
:1001700096C0913509F495C0923509F494C0933531
:1001800009F493C0943509F492C0953509F491C0EF
:10019000963509F490C0973509F48FC0983509F465
:1001A0008EC0993509F48DC09A3509F48CC08C3213
:1001B00009F48BC0883209F48AC08E3209F489C0F0
:1001C0008B3209F488C0803209F487C08E3309F479
:1001D00086C0843209F485C08A3309F484C08F3222
:1001E00009F483C0813309F482C0833309F481C0E8
:1001F000853309F480C0873309F47FC0893309F45B
:100200007EC0893209F47DC08D3209F47CC08D3303
:1002100009F47BC08C3309F47AC0853209F479C0C3
:100220008A3209F478C0803309F477C0823309F444
:1002300076C0843309F475C0863309F474C08833FA
:1002400009F473C08A3009F472C08F3309F471C0A5
:10025000813209F470C0833209F46FC08034E9F54B
:100260006EC089E808958BE808958DE808958FE8B9
:10027000089581E9089583E9089585E9089587E956
:10028000089589E908958BE908958DE908958FE926
:10029000089583EA089585EA089587EA089589EA2A
:1002A00008958BEA08958DEA08958FEA089581EB09
:1002B000089583EB089585EB089587EB089589EB06
:1002C00008958BEB08958DEB08958FEB089585ECE1
:1002D000089587EC089589EC08958BEC08958DECD2
:1002E00008958FEC089581ED089583ED089585EDCF
:1002F000089587ED089589ED08958BED08958DEDAE
:1003000008958FED089583EE089585EE089587EEA4
:10031000089589EE08958BEE08958DEE08958FEE81
:10032000089581EF089583EF089585EF089587EF8D
:10033000089589EF08958BEF08958DEF08958FEF5D
:100340000895262F60935801709359019093570197
:100350008093560161E0822F0E94E30C61E080915E
:1003600056010C94E30CCF93DF9386E990E00E9452
:10037000480BC6E5D1E061E088810E941F0D86E947
:1003800090E00E94480B60E088810E941F0D86E982
:1003900090E0DF91CF910C94480BCF93DF93C8E5A9
:1003A000D1E061E088810E941F0D0E94B30160E0EE
:1003B00088810E941F0D0E94B3010E94B3010E9418
:1003C000B301DF91CF910C94B30168EC70E080E051
:1003D00090E00C94220B0F931F93CF93DF93C7E011
:1003E000D0E0082F112707FD1095B8010C2E02C090
:1003F000759567950A94E2F76170809158010E94A3
:100400001F0D0E94B301219780F7DF91CF911F91BB
:100410000F9108950E9487000C94EB014F925F9218
:100420006F927F928F929F92AF92BF92EF92FF92C4
:100430000F931F93CF93DF93CDB7DEB761970FB6BE
:10044000F894DEBF0FBECDBF2B013C014B015C0118
:1004500097FF07C0882499245401861A970AA80A8E
:10046000B90A80E1E82EF12C81149104A104B104B1
:1004700099F477FE0AC00E2DE1E0F0E0EC0FFD1FCD
:10048000EE0DFF1D83EE80832EC001E00E0D0131C5
:1004900051F58DEE898B26C0C501B4012AE030E00C
:1004A00040E050E00E9403116A3030F4E62FF0E0A3
:1004B000E45FFE4F808101C08BECE1E0F0E0EC0FE7
:1004C000FD1FEE0DFF1D8083C501B4012AE030E061
:1004D00040E050E00E94031149015A0181E0E81A0E
:1004E000F10810F600E110E0E1E0F0E0EC0FFD1F94
:1004F000E00FF11F80810E94EB010F5F1F4F013160
:10050000110591F761960FB6F894DEBF0FBECDBF0F
:10051000DF91CF911F910F91FF90EF90BF90AF901F
:100520009F908F907F906F905F904F9008956F9203
:100530007F928F929F92AF92BF92CF92DF92EF9273
:10054000FF920F931F93CF93DF93EA012CE3C22E08
:10055000D12CE12CF12CA70196010E94E1106883B7
:10056000CA01B901A70196010E94E1106983CA017D
:10057000B90128E130E040E050E00E94E11069015B
:100580007A016A83CA01B9016C5F7F4F8F4F9F4F19
:1005900027E030E040E050E00E94E1106F5F6B83A5
:1005A000812C912C540140E034E6632E712C00E93B
:1005B00011E0242F30E02E54384FF901E370FF276B
:1005C000309789F4C901B3010E94CD10892B31F411
:1005D000C901B8010E94CD10892B29F48EE691E063
:1005E000A0E0B0E004C08DE691E0A0E0B0E0880EAD
:1005F000991EAA1EBB1ED501C401AA27BB27C81677
:10060000D906EA06FB0610F04F5FD3CF4E83309732
:1006100099F4C90164E670E00E94CD10892B39F489
:10062000C90160E971E00E94CD10892B29F48EE6A2
:1006300091E0A0E0B0E004C08DE691E0A0E0B0E081
:10064000881A990AAA0ABB0AC818D908EA08FB0836
:10065000C90164E670E00E94CD108C01C90160E917
:1006600071E00E94CD10A6E1B1E020E0213041F41C
:10067000309751F40115110529F4009729F402C0AF
:100680004C9103C04DE101C04CE150E060E070E0EE
:10069000C416D506E606F70640F0C41AD50AE60ADF
:1006A000F70A2F5F11962C3009F72F5F2D83C39423
:1006B000CC82DF91CF911F910F91FF90EF90DF904F
:1006C000CF90BF90AF909F908F907F906F90089544
:1006D000CF92DF92EF92FF92C0906A01D0906B01AF
:1006E000E0906C01F0906D016C157D058E059F0505
:1006F00071F06B017C014EE651E00E949702C092BE
:100700006A01D0926B01E0926C01F0926D01FF9052
:10071000EF90DF90CF9008956F927F928F929F928B
:10072000AF92BF92CF92DF92EF92FF920F931F93FF
:10073000CF93DF93EC01EE81AE2FB0E020E833E3FE
:1007400041EE51E00E94BA104B015C0122EB37E010
:10075000FD0104E610E080E9E82EFF24F394C901CE
:10076000825B97408E179F07DCF4C901837099273D
:10077000892B99F4C901B8010E94CD10892B31F45D
:10078000C901B7010E94CD10892B39F480E8880E89
:1007900081E5981E81E0A81EB11C2F5F3F4FDFCF7F
:1007A0006D80712CEE54F84FCF0164E670E00E942A
:1007B000CD107C01CF0160E971E00E94CD106C0189
:1007C00001E010E0E370FF27061517052CF5023055
:1007D000110581F4309771F4E114F10419F4C11496
:1007E000D10441F480E8880E8BE3981E86E2A81EAF
:1007F000B11C0FC0D801AB5EBE4FAC91B0E020E899
:1008000031E541E050E00E94BA10860E971EA81E06
:10081000B91E0F5F1F4FD8CF49812A8130E0A0E178
:10082000BEE00E94A4106B017C01242F30E0ACE3F9
:10083000B0E00E94A410DC01CB018C0D9D1DAE1D0B
:10084000BF1D28816C017D01C20ED11CE11CF11C71
:10085000AC81B0E0119720E831E541E050E00E9422
:10086000C510DC01CB018C0D9D1DAE1DBF1DBC0153
:10087000CD01680D791D8A1D9B1DDF91CF911F91C0
:100880000F91FF90EF90DF90CF90BF90AF909F902F
:100890008F907F906F9008950F931F9360936601E0
:1008A0007093670180936801909369010091000142
:1008B000109101012091020130910301DC01CB0173
:1008C000800F911FA21FB31F80935E0190935F0161
:1008D000A0936001B093610182E090E090935D018C
:1008E00080935C010E94F10A60936201709363013E
:1008F00080936401909365011F910F910895CF92A9
:10090000DF92EF92FF920F931F930E94F10AC09023
:100910006201D0906301E0906401F09065018B0169
:100920009C010C191D092E093F09809166019091C7
:100930006701A0916801B0916901083E134021054B
:100940003105D0F00196A11DB11D809366019093F1
:100950006701A0936801B0936901B701A6014851EE
:100960005C4F6F4F7F4F40936201509363016093E0
:10097000640170936501C9CF40915E0150915F01A0
:10098000609160017091610184179507A607B70710
:10099000C8F1E0915A01F0915B01309799F1099506
:1009A000611571058105910519F00E944C042AC05A
:1009B0004091000150910101609102017091030189
:1009C0008091660190916701A0916801B0916901E1
:1009D000840F951FA61FB71F80935E0190935F0140
:1009E000A0936001B093610181E090E020915C01EF
:1009F00030915D01232B11F480E090E090935D0134
:100A000080935C016091660170916701809168013B
:100A1000909169011F910F91FF90EF90DF90CF901F
:100A200008950E947F040E9468038091700190E005
:100A300008950E947F040E94680380916F0190E0F6
:100A400008950E947F040E94680380916E0190E0E7
:100A500008950E947F040E9468038091710190E0D4
:100A60000895EF92FF920F9394E6E916F1042CF0AB
:100A700092EBE91A97E0F90A03C09EE1E90EF11C36
:100A8000E0927401009373012093720180937001CE
:100A900060936F0140936E018EE691E00E948C039B
:100AA0000F91FF90EF900C944C04FC0171836083D4
:100AB00008951F93CF93DF93880FC82FD0E0BE0116
:100AC0007E5F8DE891E00E94A00A182FBE016F5F43
:100AD0007D4F8DE891E00E94A00A212F30E0322F57
:100AE0002227A901480F511DCA01DF91CF911F9103
:100AF0000895FC01808191810895FC01208131815C
:100B0000AAE0B0E00E94A41008958F929F92BF9235
:100B1000CF92DF92EF92FF920F931F93CF93DF93C9
:100B200097E4899F60011124B6018DE891E00E944D
:100B3000A00AB82EC82FD0E0CE010196880F991FC9
:100B40000E948D0B7C0186014C010F5F1F4F9FEFB0
:100B5000900F9C199B1560F4B8018DE891E00E94FC
:100B6000A00A0E945905F401819391934F01EDCFA2
:100B7000CC0FDD1FCE0DDF1D8FEF9FEF9983888394
:100B8000C701DF91CF911F910F91FF90EF90DF9000
:100B9000CF90BF909F908F900895FC0181E02081BD
:100BA00031812F3F3F4F09F080E008950F931F934D
:100BB000CF93DF938C01660FC62FD0E0FC014181FB
:100BC000BE017E5F8DE891E00E94A30ABE016F5FC7
:100BD0007D4FF80140818DE891E0DF91CF911F9129
:100BE0000F910C94A30A70E097E4899F600D711D2A
:100BF00011246F5F7F4F8DE891E00C94A30A462F7C
:100C000097E4899FB00111248DE891E00C94A30A28
:100C1000CF92DF92EF92FF920E9411057C010E9419
:100C20001905AC0120E13EE0D7010E94B3106B0131
:100C30007C012CE330E0DA010E94B310C60ED71E0F
:100C4000E81EF91E0E942105AA2797FDA095BA2F3C
:100C5000BC01CD016C0D7D1D8E1D9F1DFF90EF9081
:100C6000DF90CF9008950E942905825008950F9338
:100C70001F93CF930FE711E0C0E08C2F0E948505F2
:100C8000F801819391938F01CF5FC730B1F7CF9176
:100C90001F910F910895CF93DF93CFE7D1E0899112
:100CA00099910E94C50E81E0CD38D807C1F7DF9138
:100CB000CF910895CF93C82F40E052EC61E070E0EF
:100CC00087E991E00E94DF0FC0937D0161E08C2FE6
:100CD0000E94E30C6CE070E08DE090E00E94A101C6
:100CE0000E94330680937E010E9437060E94080608
:100CF0006093790170937A0180937B0190937C01DA
:100D0000CF910895CF93DF9300D0CDB7DEB7209178
:100D10004102309142022115310511F425E432E0FF
:100D2000CE010196821B930B0F900F90DF91CF9114
:100D3000089562E271E087E991E00E948C0D0E94C3
:100D400082064AE050E0BC0187E991E00E946D0E06
:100D50006CE271E087E991E00C948C0D61E0809188
:100D60007D010E941F0D60E177E280E090E00E942B
:100D7000220B60E080917D010C941F0D2F923F9219
:100D80004F925F926F927F928F929F92AF92BF929B
:100D9000CF92DF92EF92FF920F931F93CF93DF9347
:100DA000CDB7DEB7C45FD3400FB6F894DEBF0FBE39
:100DB000CDBF87E991E00E94F30E8F3F2FEF92079E
:100DC00009F423C28133910509F05BC06BE587E923
:100DD00091E00E948E0D9FE7E92E91E0F92ED12C33
:100DE0006BE587E991E00E948E0D00E010E0F701CD
:100DF00080819181800F911F0E94CD05811127C0B4
:100E0000F70180819181800F911F0E9479054AE04E
:100E100050E0BC0187E991E00E94B20E4AE050E048
:100E200060E070E087E991E00E946D0E0E5F1F4F59
:100E3000F70180819181800F911F0E94CD05811162
:100E4000D6CF6CE287E991E00E948E0DD0CF6DE5A0
:100E500087E991E00E948E0DF6E0DF1629F06CE242
:100E600087E991E00E948E0DD39422E0E20EF11CFE
:100E700087E0D812B5CF6DE587E991E00E94BB0D00
:100E8000C4C18233910579F4409175015091760186
:100E900060917701709178012AE030E087E991E074
:100EA0000E94750EB2C18333910509F0E6C00E941D
:100EB0004B064E0195E1891A9CEF990A5E01EFEF0E
:100EC000AE1AEDEFBE0A65011401412C512C87E9E1
:100ED00091E00E94F30E8C016EE271E087E991E0EF
:100EE0000E948C0D4AE050E0B80187E991E00E9431
:100EF0006D0E17FF07C064E371E087E991E00E947F
:100F0000A90D58C0CC50DC4F0883C45FD340F10119
:100F100001931F01E12CF12C17C0102F0027600E48
:100F2000711EFE01319620E0251509F460C1819102
:100F300091918615970509F057C0F601EE0DFF1D3A
:100F40002083FFEFEF1AFF0ACC50DC4F2881C45FEB
:100F5000D340E21608F04AC087E991E00E94F30E00
:100F60008C016EE271E087E991E00E948C0D4AE00D
:100F700050E0B80187E991E00E946D0E17FF1DC097
:100F800067E371E087E991E00E948C0D4AE050E050
:100F90006E2D87E991E00E94940E69E371E087E984
:100FA00091E00E948C0D4AE050E0642D87E991E0C9
:100FB0000E949B0E0E94370628C187E991E00E949B
:100FC000F30E3C016EE271E087E991E00E948C0D26
:100FD0004AE050E0B30187E991E00E946D0E77FE90
:100FE0009CCF6BE371E0CECF2F5F9ECF439486E41E
:100FF000C80ED11C97E049126ACF10E0F4010191AC
:101000004F01602F812F0E94FF05E12CF12CE0168B
:1010100060F4F501EE0DFF1D40816E2D812F0E94C1
:10102000F305FFEFEF1AFF0AF2CF1F5F26E4A20ECF
:10103000B11C173019F7CE0101967C0110E015158F
:1010400089F0F701619171917F01CE018E509C4F23
:101050000E945505612FCE018E509C4F0E94D605EF
:101060001F5FEDCF0E94370660910401709105016A
:1010700087E991E00E94A90DC8C08433910519F455
:101080000E949906C2C08533910551F40E9433062F
:101090004AE050E0682F87E991E00E949B0EB5C0BE
:1010A000C69709F0B2C064E170E080E090E00E9471
:1010B000220B87E991E00E94F30E782E87E991E0F8
:1010C0000E94F30E6C0187E991E00E94F30E5C012F
:1010D00087E991E00E94F30E4C0187E991E00E94BC
:1010E000F30E8C0187E991E00E94F30E582E87E9F8
:1010F00091E00E94F30E682E4AE050E0672D87E9E8
:1011000091E00E94940E60E287E991E00E948E0DCA
:101110004AE050E06C2D87E991E00E94940E60E275
:1011200087E991E00E948E0D4AE050E06A2D87E940
:1011300091E00E94940E60E287E991E00E948E0D9A
:101140004AE050E0682D87E991E00E94940E60E249
:1011500087E991E00E948E0D4AE050E0602F87E918
:1011600091E00E94940E60E287E991E00E948E0D6A
:10117000F52CE12CE60CF11C4AE050E0B70187E9C0
:1011800091E00E946D0E60E287E991E00E948E0D71
:10119000112794013327A5015527B6017727872DFD
:1011A00090E00E943105609104017091050187E98A
:1011B00091E00E94A90D0E9408066093750170934A
:1011C00076018093770190937801DC01CB01019740
:1011D000A109B1098093790190937A01A0937B01D1
:1011E000B0937C010E94330680937E010EC0FE0105
:1011F0003196E50DF11DE50DF11D71826082F6015C
:10120000EE0DFF1D508253949CCECC50DC4F0FB698
:10121000F894DEBF0FBECDBFDF91CF911F910F912C
:10122000FF90EF90DF90CF90BF90AF909F908F9006
:101230007F906F905F904F903F902F9008958F9286
:101240009F92AF92BF92CF92DF92EF92FF921F9345
:10125000CF93DF930E94BE06809175019091760135
:10126000A0917701B09178018093790190937A01F0
:10127000A0937B01B0937C010E94080660937501E6
:10128000709376018093770190937801C0907901F3
:10129000D0907A01E0907B01F0907C016C157D0587
:1012A0008E059F056CF41092790110927A011092CC
:1012B0007B0110927C010E94330680937E0117C14E
:1012C000C12CCC2DD0E0CC0FDD1FE0917E01F0E0F1
:1012D000EE0FFF1FE158FE4F808191818C0F9D1F03
:1012E0000E94CD05811103C1E0917E01F0E0EE0F77
:1012F000FF1FE158FE4F808191818C0F9D1F0E943E
:101300007D054B015C018091750190917601A09162
:101310007701B091780188159905AA05BB050CF4F1
:10132000E4C08091790190917A01A0917B01B09104
:101330007C0188159905AA05BB050CF0D6C00E9452
:10134000CD018AE00E940A0210E0C12FD0E0CC0F4C
:10135000DD1FE0917E01F0E0EE0FFF1FE158FE4F30
:10136000808191818C0F9D1F0E94CD05811114C039
:10137000E0917E01F0E0EE0FFF1FE158FE4F80810B
:1013800091818C0F9D1F0E947D050E940E0280E2BC
:101390000E940A021F5FD9CF8DE20E940A0260916B
:1013A0007E0170E080E090E00E940E0280E20E94E8
:1013B0000A02609175017091760180917701909198
:1013C00078010E940E0280E20E940A026091790177
:1013D00070917A0180917B0190917C010E940E02B4
:1013E0008AE30E940A02C501B4010E940E0280E253
:1013F0000E940A02D12CE12CF12CC701B6010E94F7
:101400000E028AE00E940A020E94E5010E94AE06D6
:101410000E94CD018AE00E940A0210E0C12FD0E0B4
:10142000CC0FDD1FE0917E01F0E0EE0FFF1FE158D1
:10143000FE4F808191818C0F9D1F0E94CD058111EF
:1014400014C0E0917E01F0E0EE0FFF1FE158FE4F67
:10145000808191818C0F9D1F0E947D050E940E024C
:1014600080E20E940A021F5FD9CF8DE20E940A0229
:1014700060917E0170E080E090E00E940E0280E2C8
:101480000E940A0260917501709176018091770146
:10149000909178010E940E0280E20E940A026091FF
:1014A000790170917A0180917B0190917C010E9479
:1014B0000E028AE30E940A02C501B4010E940E02D4
:1014C00080E20E940A02C701B6010E940E028AE071
:1014D000DF91CF911F91FF90EF90DF90CF90BF9061
:1014E000AF909F908F900C940A02C394EACEDF9144
:1014F000CF911F91FF90EF90DF90CF90BF90AF9072
:101500009F908F900895EF92FF920F931F938FED0E
:10151000E82E87E0F82E02E010E029E030E042E318
:1015200050E06BE370E088E090E00E9431058BE0D2
:101530001F910F91FF90EF900C945A060C941F0985
:10154000CB010C943C11CB01642F0C9444111F92DD
:101550000F920FB60F9211242F933F938F939F9367
:10156000AF93BF9380918F0190919001A0919101D1
:10157000B091920130918E0123E0230F2D3720F49A
:101580000196A11DB11D05C026E8230F0296A11DDD
:10159000B11D20938E0180938F0190939001A093B1
:1015A0009101B09392018091930190919401A09147
:1015B0009501B09196010196A11DB11D80939301F3
:1015C00090939401A0939501B0939601BF91AF9130
:1015D0009F918F913F912F910F900FBE0F901F9071
:1015E00018952FB7F89460918F01709190018091B8
:1015F0009101909192012FBF08953FB7F894809187
:10160000930190919401A0919501B091960126B516
:10161000A89B05C02F3F19F00196A11DB11D3FBF2A
:10162000BA2FA92F982F8827820F911DA11DB11DB8
:10163000BC01CD0142E0660F771F881F991F4A95B4
:10164000D1F70895CF92DF92EF92FF92CF93DF937D
:101650006B017C010E94FD0AEB01C114D104E1047D
:10166000F10479F00E94FD0A6C1B7D0B683E73400B
:10167000A0F381E0C81AD108E108F108C851DC4F95
:10168000ECCFDF91CF91FF90EF90DF90CF90089556
:10169000019739F0880F991F880F991F02970197BA
:1016A000F1F70895789484B5826084BD84B5816033
:1016B00084BD85B5826085BD85B5816085BDEEE65A
:1016C000F0E0808181608083E1E8F0E01082808139
:1016D00082608083808181608083E0E8F0E08081A7
:1016E00081608083E1EBF0E0808184608083E0EBC7
:1016F000F0E0808181608083EAE7F0E080818460AF
:10170000808380818260808380818160808380810A
:10171000806880831092C1000895CF93DF93823058
:10172000910510F482E090E0E0914302F0914402D0
:1017300020E030E0C0E0D0E0309711F140815181ED
:1017400048175907C0F04817590761F482819381FF
:10175000209719F09B838A832BC090934402809337
:10176000430226C02115310519F04217530718F41A
:101770009A01BE01DF01EF010280F381E02DDCCF91
:101780002115310509F1281B390B2430310590F45E
:1017900012968D919C9113976115710521F0FB01B3
:1017A0009383828304C09093440280934302FD019B
:1017B000329644C0FD01E20FF31F819391932250B2
:1017C00031092D933C933AC020914102309142025D
:1017D000232B41F4209108013091090130934202FA
:1017E0002093410220910601309107012115310516
:1017F00041F42DB73EB740910A0150910B01241BD3
:10180000350BE0914102F0914202E217F307A0F498
:101810002E1B3F0B2817390778F0AC014E5F5F4F46
:101820002417350748F04E0F5F1F50934202409334
:1018300041028193919302C0E0E0F0E0CF01DF919B
:10184000CF9108950F931F93CF93DF93009709F4DF
:101850008CC0FC01329713821282009143021091D6
:1018600044020115110581F420813181820F931FFB
:1018700020914102309142022817390779F5F093FF
:101880004202E093410271C0D80140E050E0AE173F
:10189000BF0750F412962D913C911397AD0121157D
:1018A000310509F1D901F3CF9D01DA013383228398
:1018B00060817181860F971F8217930769F4EC018D
:1018C00028813981260F371F2E5F3F4F31832083B8
:1018D0008A819B8193838283452B29F4F093440270
:1018E000E093430242C01396FC93EE931297ED01EE
:1018F000499159919E01240F351FE217F30771F4A6
:1019000080819181840F951F029611969C938E93EE
:101910008281938113969C938E931297E0E0F0E07E
:10192000D80112968D919C911397009719F0F801A8
:101930008C01F6CF8D919C9198012E5F3F4F820FC5
:10194000931F20914102309142022817390769F410
:10195000309729F4109244021092430202C013827D
:1019600012821093420200934102DF91CF911F91A6
:101970000F910895833081F028F4813099F08230FE
:10198000A1F008958630A9F08730B9F08430D1F401
:10199000809180008F7D03C0809180008F7780933D
:1019A0008000089584B58F7702C084B58F7D84BD93
:1019B00008958091B0008F7703C08091B0008F7D33
:1019C0008093B0000895CF93DF9390E0FC01E4583A
:1019D000FF4F2491FC01E057FF4F8491882361F170
:1019E00090E0880F991FFC01E255FF4FC591D491FB
:1019F000FC01EC55FF4FA591B491611109C09FB74F
:101A0000F8948881209582238883EC912E230BC043
:101A1000623061F49FB7F8943881822F80958323D8
:101A20008883EC912E2B2C939FBF06C08FB7F89420
:101A3000E8812E2B28838FBFDF91CF9108951F93CC
:101A4000CF93DF93282F30E0F901E859FF4F8491BD
:101A5000F901E458FF4FD491F901E057FF4FC491C9
:101A6000CC23C9F0162F81110E94BA0CEC2FF0E0A4
:101A7000EE0FFF1FEC55FF4FA591B4918FB7F8946F
:101A8000111105C09C91ED2FE095E92302C0EC9166
:101A9000ED2BEC938FBFDF91CF911F910895CF92E3
:101AA000DF92EF92FF920F931F93CF93DF936C011E
:101AB000EB017B01E40EF51E00E010E0CE15DF0522
:101AC00061F06991D601ED91FC910190F081E02DDA
:101AD000C6010995080F191FF1CFC801DF91CF91F9
:101AE0001F910F91FF90EF90DF90CF9008956115B7
:101AF000710579F0FB0101900020E9F73197AF0102
:101B0000461B570BDC01ED91FC910280F381E02D27
:101B1000099480E090E008950C94770DDC01ED913C
:101B2000FC910190F081E02D09940F931F93CF93C6
:101B3000DF93EC016DE00E948E0D8C016AE0CE0116
:101B40000E948E0D800F911FDF91CF911F910F91F9
:101B500008950F931F93CF93DF93EC010E94770DAD
:101B60008C01CE010E94950D800F911FDF91CF91C6
:101B70001F910F9108950F931F93CF93DF93EC0163
:101B80000E948E0D8C01CE010E94950D800F911F39
:101B9000DF91CF911F910F9108958F929F92AF92F5
:101BA000BF92CF92DF92EF92FF920F931F93CF934A
:101BB000DF93CDB7DEB7A1970FB6F894DEBF0FBEA7
:101BC000CDBF6C01142FE52FCB01022F19A22230BB
:101BD00008F40AE07E0121E2E20EF11C802E912C35
:101BE000A12CB12C612F7E2FA50194010E94E11040
:101BF000029F1019112481E0E81AF1081A3014F438
:101C0000105D01C0195CF7011083122FE32FCA0188
:101C1000232B242B252B31F7B701C6010E94770D0A
:101C2000A1960FB6F894DEBF0FBECDBFDF91CF9166
:101C30001F910F91FF90EF90DF90CF90BF90AF90EA
:101C40009F908F900895CF92DF92EF92FF920F9323
:101C50001F93CF93DF93EC016A017B0121153105BE
:101C600079F4E881F9810190F081E02D642FDF9112
:101C7000CF911F910F91FF90EF90DF90CF9009943B
:101C80002A303105E9F477FF1AC06DE20E948E0D0B
:101C90008C0144275527BA014C195D096E097F094B
:101CA0002AE0CE010E94CD0D800F911FDF91CF91D0
:101CB0001F910F91FF90EF90DF90CF9008952AE051
:101CC000B701A601CE01DF91CF911F910F91FF9037
:101CD000EF90DF90CF900C94CD0D9A01AB01662769
:101CE00057FD6095762F0C94230E0F931F93CF937F
:101CF000DF93EC010E94230E8C01CE010E94950D12
:101D0000800F911FDF91CF911F910F9108952115A1
:101D1000310541F4DC01ED91FC910190F081E02D61
:101D2000642F09940C94CD0D9A01462F50E060E089
:101D300070E00C94870E0F931F93CF93DF93EC0109
:101D40009A01462F50E060E070E00E94870E8C01FF
:101D5000CE010E94950D800F911FDF91CF911F91B1
:101D60000F9108959A01AB0160E070E00C94870E2A
:101D70000E94520B0E94830ACBE9DFE00E949E0A78
:101D80002097E1F30E949B0FF9CF0C94220CFC01E9
:101D900024853585F901E05CFF4F80819181329681
:101DA00020813181821B930B8F7399270895DC0169
:101DB0001C96ED91FC911D97DF01A05CBF4F2D910A
:101DC0003C91119712968D919C9111972817390784
:101DD00039F08D919C91E80FF91F808190E0089572
:101DE0008FEF9FEF0895FC01A485B585FD01E05CB0
:101DF000FF4F2081318132968081918128173907E8
:101E000079F080819181A80FB91F8C912081318157
:101E10002F5F3F4F2F7333273183208390E0089546
:101E20008FEF9FEF0895FC0181A1882329F0A489F9
:101E3000B5898C9186FFFBCF11A208950F931F9354
:101E4000CF93DF93FC01A685B7858D01005C1F4F02
:101E5000E8018881998101968F739927AD014E5BC6
:101E60005F4FEA012881398182179307D1F3E80196
:101E700028813981A20FB31F6C93A685B785A05C1A
:101E8000BF4F11969C938E93A689B7892C9181E0C0
:101E900090E0078C02C0880F991F0A94E2F7822B0A
:101EA0008C9381E081A30488F589E02D8081806492
:101EB000808381E090E0DF91CF911F910F91089591
:101EC00008951F920F920FB60F9211242F934F93E4
:101ED0005F938F939F93EF93FF938091C00082FD58
:101EE0001CC02091C60080913D0290913E02019657
:101EF0008F73992740913F025091400284179507B4
:101F000071F0E0913D02F0913E02E350FE4F2083DC
:101F100090933E0280933D0202C08091C600FF91E3
:101F2000EF919F918F915F914F912F910F900FBEE5
:101F30000F901F90189587E991E00E94C70E892B9A
:101F400011F00C94600F08951F920F920FB60F922C
:101F500011242F933F938F939F93EF93FF9320919F
:101F6000F9013091FA018091FB019091FC01281751
:101F7000390731F48091C1008F7D8093C10014C076
:101F8000E091FB01F091FC01E754FE4F208180912C
:101F9000FB019091FC0101968F7399279093FC01AE
:101FA0008093FB012093C600FF91EF919F918F9149
:101FB0003F912F910F900FBE0F901F901895CF92C9
:101FC000DF92EF92FF920F931F93CF93DF93EC0179
:101FD0006A017B01411581EE58076105710511F118
:101FE000EC89FD8981E090E008A002C0880F991F6C
:101FF0000A94E2F7808360E079E08DE390E0A70146
:1020000096010E94E11089019A01015011092109EC
:10201000310936952795179507959801011580E1A7
:102020001807A8F0EC89FD89108260E874E88EE159
:1020300090E0A70196010E94E110DA01C901019721
:10204000A109B109B695A795979587959C01E8894F
:10205000F9893083EA89FB89208319A2EE89FF89F7
:10206000408181E090E09C010C8C02C0220F331F64
:102070000A94E2F7242B2083EE89FF8940819C019A
:102080000D8C02C0220F331F0A94E2F7242B208309
:10209000EE89FF8940819C010E8C02C0220F331F04
:1020A0000A94E2F7242B2083EE89FF8920810F8C8C
:1020B00002C0880F991F0A94E2F7809582238083DB
:1020C000DF91CF911F910F91FF90EF90DF90CF9014
:1020D0000895E7E9F1E01382128288EE93E0A0E030
:1020E000B0E084839583A683B78389E491E09183EC
:1020F00080838DEF91E09587848789EB91E09787C6
:10210000868785EC90E0918B808B84EC90E0938BBC
:10211000828B80EC90E0958B848B81EC90E0978BA8
:10212000868B82EC90E0918F808F86EC90E0938F8D
:10213000828F84E0848F83E0858F87E0868F85E0BF
:10214000878F81E080A30895A29FB001B39FC00153
:10215000A39F700D811D1124911DB29F700D811DD3
:102160001124911D08950E94A410B7FF0895821BA9
:10217000930B08950E94A410A59F900DB49F900DFD
:10218000A49F800D911D11240895B7FF0C94BA10DF
:102190000E94BA10821B930B089597FB072E16F42A
:1021A000009407D077FD09D00E94221107FC05D0CA
:1021B0003EF4909581959F4F0895709561957F4F5E
:1021C0000895A1E21A2EAA1BBB1BFD010DC0AA1F78
:1021D000BB1FEE1FFF1FA217B307E407F50720F090
:1021E000A21BB30BE40BF50B661F771F881F991F0B
:1021F0001A9469F760957095809590959B01AC0154
:10220000BD01CF010895052E97FB1EF400940E9496
:102210001A1157FD07D00E94E11007FC03D04EF4BD
:102220000C941A1150954095309521953F4F4F4F82
:102230005F4F089590958095709561957F4F8F4F72
:102240009F4F0895AA1BBB1B51E107C0AA1FBB1FCC
:10225000A617B70710F0A61BB70B881F991F5A9532
:10226000A9F780959095BC01CD010895EE0FFF1F51
:102270000590F491E02D0994F999FECF92BD81BDAE
:10228000F89A992780B50895262FF999FECF1FBA9D
:1022900092BD81BD20BD0FB6F894FA9AF99A0FBE8F
:0822A00001960895F894FFCFA8
:1022A8002C0100003F01000045028000EDD5EFD76A
:1022B800F1D9F3DBF5DD1F1C1F1E1F1E1F1F1E1F7C
:1022C8001E1F465245454D454D3A20000A002067DD
:1022D8006F74200045300045313A0045323A0044D9
:1022E8006F6E652100000000001E0F4F0DC70EF332
:0622F8000ED70E130F00CB
:00000001FF
